:020000040800F2
:200000009804002051010008E30E00086B0E0008E10E000809020008E1100008000000004D
:200020000000000000000000000000005D0F00080B02000800000000E50E00085F0F0008C6
:200040006B0100086B0100086B0100086B0100086B0100086B0100086B0100086B01000800
:200060006B0100086B0100086B0100086B0100086B0100086B0100086B0100086B010008E0
:200080006B0100086B0100086B0100086B0100086B0100086B0100086B0100086B010008C0
:2000A0006B0100086B0100086B0100086B0100086B0100086B0100086B0100086B010008A0
:2000C0006B0100086B0100086B0100086B0100086B0100086B0100086B0100086B01000880
:2000E0006B0100086B0100086B0100086B0100086B0100086B0100086B0100086B01000860
:200100006B0100086B0100086B0100086B0100086B0100086B0100086B0100086B0100083F
:200120006B0100086B0100086B0100086B010008DFF810D000F056F80048004751140008FE
:20014000AFF300809804002080F30888704700000648804706480047FEE7FEE7FEE7FEE7C9
:20016000FEE7FEE7FEE7FEE7FEE7FEE7C10F000831010008202A04DB203A21FA02F000215E
:20018000704721FA02F3D040C2F120029140084319467047D2B201E000F8012B491EFBD2C4
:2001A00070470022F6E710B513460A4604461946FFF7F0FF204610BD30B50B4601460020BD
:2001C0002022012409E021FA02F59D4205D303FA02F5491B04FA02F52844151EA2F1010284
:2001E000F1DC30BD064C074D06E0E06840F0010394E8070098471034AC42F6D3FFF79CFF4F
:20020000A0150008C0150008FEE7704772B6FEE706490020C8610648016941F004010161B3
:20022000016941F040010161704700007800002000200240064A0021D16106490A6942F038
:2002400002020A614861086940F04000086170477800002000200240044B0022DA61044A91
:20026000136943F00103136101807047780000200020024014480022C168CB06134904D578
:20028000CA6942F00202CA611022C3685B0705D5CB6943F00103CB6142F00402C369DB0754
:2002A00007D0CB6943F00403CB61C16921F00101C161A2F58071013901D0C2607047C169D8
:2002C00021F00101C1617047002002407800002070B5054600F0E6F90646114C09E0681CE3
:2002E00007D025B100F0DEF9801BA84201D9032070BDE068C007F2D1E068800601D5202025
:20030000E060E068C00605D4E069C00702D1E068400703D5FFF7AEFF012070BD002070BD2E
:200320000020024070B5044600F0BCF90546601C02D004480078044400F0B4F9401BA042C8
:20034000FAD370BD140000202DE9F047054626480F460126017E01290FD001218146017605
:200360002868DFF888804CF25034022808D0A2462046FFF7ADFFA8B131E00220BDE8F087B2
:200380002046FFF7A5FF08BB0120FFF741FF2046FFF79EFFD8F81010064621F00401C8F838
:2003A00010101CE04FF0FF303860AC6811E02046FFF740FF5046FFF78BFFD8F8101006006F
:2003C00021F00201C8F8101001D03C6007E004F50064D5E9020100EBC120A042E7D8002129
:2003E00089F818103046C9E778000020002002400348016941F08001016100207047000094
:20040000002002402DE9F05F07461C4888460024017E15461E46012909D0012181460176D1
:200420004CF2503A5046FFF753FF18B122E00220BDE8F09F012F02D0022F00D00427D346AE
:20044000DFF83CA0220128463146FFF793FE81B208EB4400FFF700FF5846FFF739FFDAF85D
:20046000102022F00102CAF8102018B9641CE4B2BC42E7D3002289F81820D9E77800002073
:2004800000200240064900200A69120607D5054A4A60054A4A600969090600D50120704704
:2004A0000020024023016745AB89EFCD2DE9F84FDFF8C891002409F1040A0AF1040B2346EE
:2004C0000F270BF1040ED1E00125A54006EA0502AA4276D1DFF8A8C14E68A6EB0C086645AC
:2004E0002BD00DDC032E34D005DC36B3012E19D0022E2FD11BE0112E16D0122E2AD119E07D
:20050000B8F5881F19D006DCB8F5803F15D0B8F5801F1FD111E0B8F5001F0ED0B8F5041FC4
:2005200018D10AE0CB6815E0CB681B1D12E0CB6808330FE0CB680C330CE08B682BB1012BAD
:200540004FF0080303D0456104E0042302E0056100E00023FF2A01D8064601E000F1040658
:200560004FEA840501D9A5F12005D6F8008007FA05FC28EA0C0803FA05F548EA0508C6F8BA
:2005800000804D68ED0070D53E4DAE6946F00106AE61AD6924F0030605F0010500953A4DBC
:2005A00006EB050CDCF80850A607360F07FA06F825EA0805DFF8D480404503D14FF0000835
:2005C00025E052E0DFF8C880404502D14FF001081DE0DFF8C080404502D14FF0020816E07A
:2005E000DFF8B480404502D14FF003080FE0DFF8AC80404502D14FF0040808E0DFF8A080DA
:20060000404502D14FF0050801E04FF0060808FA06F848EA0508CCF808804D68D9F8006097
:20062000ED034D4601D5164300E096432E604D68DAF80060AD03554601D5164300E09643A7
:200640002E604D68DBF80060ED025D4601D5164300E096432E604D68DEF80060AD027546C7
:2006600001D5164300E096432E60641C0A681646E2407FF429AFBDE8F88F000000040140D8
:2006800000001110001002400000014000080140000C014000100140001401400018014011
:2006A000001C014001488068704700001400002002488168027811448160704714000020F3
:2006C000074810B5016841F010010160032000F067F80F2000F006F800F024F8002010BD72
:2006E0000020024070B50D4D04464FF47A712878B1FBF0F00A490968B1FBF0F000F0DEFA5D
:2007000048B9102C07D200222146501E00F028F800206C6070BD012070BD00001400002021
:20072000200000200C4808B5816941F001018161816901F001010091C16941F08051C161AD
:20074000C06900F0805000900448416821F0E06141F00071416008BD00100240000001403E
:20076000F0B40E4B1B680C46C3F30223C3F10705042D00D90425191D072901D2002300E09D
:20078000DB1E012606FA05F1491E214099409E40761E16403143F0BC00F0B4BC0CED00E081
:2007A000064900F0070208684FF6FF03184040EA0220034A10430860704700000CED00E0FE
:2007C0000000FA052DE9F0470F46050061D0434E306800F00700B84209D2306820F007009E
:2007E00038433060306800F00700B84251D128683B4C810712D5400703D5606840F4E06062
:2008000060602878000703D5606840F4605060606068A96820F0F000084360602878C007E2
:2008200028D06868012810D02168022810D0890700292EDA616821F0030101436160FFF7BA
:2008400031FF804641F288390DE021688903EFE78901EDE7FFF726FFA0EB0801494502D960
:200860000320BDE8F0876068696800F00C00B0EB810FEFD1306800F00700B8420BD93068B4
:2008800020F0070038433060306800F00700B84201D00120E5E72878400705D56068E96815
:2008A00020F4E060084360602878000706D56068296920F4605040EAC100606000F038F86E
:2008C0006168084AC1F30311515CC8400649086006480068FFF706FF0020C2E700200240ED
:2008E000001002408815000820000020180000200448054900684968044AC1F30221515C04
:20090000C84070472000002000100240981500080448054900684968044AC1F3C221515C8C
:20092000C840704720000020001002409815000812A185B00FC98DE80F0014A0144A0068F3
:2009400004905168134801F00C03042B10D0082B0ED1C1F38343C9031DF803000AD55168D8
:2009600004AAC1F34041515C0A4A5043B0FBF1F005B0704708494843FAE70000020304053D
:20098000060708090A0B0C0D0E0F1010010200000010024000127A0000093D002DE9F84F4A
:2009A000040070D02078C04DC00749D06868C0F38100012807D06868C0F38100022809D162
:2009C0006868C00306D52868800339D560680028E7D035E06068B0F5803F0BD010B1B0F55F
:2009E000A02F11D0286820F480302860286820F4802002E0286840F480302860606890B140
:200A0000FFF750FE06460AE0286840F480202860F0E700BFFFF746FE801B642873D828689E
:200A20008003F7D50CE0FFF73DFE064605E000BFFFF738FE801B6428F0D828688003F7D461
:200A400020789A4E80074FF001094FF0000839D5686810F00C0F07D06868C0F38100022801
:200A600009D16868C00306D42868800714D52069012808D110E02069B0B1C6F80090FFF786
:200A800011FE074605E00AE1FFF70CFEC01B0228C4D828688007F7D52868616920F0F80044
:200AA00040EAC10028600DE0C6F80080FFF7FAFD074604E0FFF7F6FDC01B022823D8286801
:200AC0008007F7D4207800072CD57948A169D9B1C0F80090FFF7E6FD074604E0FFF7E2FDA8
:200AE000C01B02280FD8686A8007F7D571484FF4FA510068B0FBF1F0009000BF0098411E64
:200B00000091FAD20EE080E0C0F80080FFF7CAFD074604E0FFF7C6FDC01B022875D8686A27
:200B20008007F7D42078400760D5E8690027C00008D4E86940F08050E861E869012700F038
:200B4000805000905C480168C90513D40168834641F480710160FFF7A5FD824606E000BFB5
:200B6000FFF7A0FDA0EB0A0064284ED8DBF80000C005F5D5E06801280AD008B1052813D025
:200B8000286A20F001002862286A20F0040002E0286A40F001002862E06841F2883B98B1CC
:200BA000FFF780FD82460BE0286A40F004002862EEE700BFFFF776FDA0EB0A0159455AD85C
:200BC000286A8007F6D50CE0FFF76CFD824605E0FFF768FDA0EB0A0159454CD8286A80076D
:200BE000F6D41FB1E86920F08050E861E06988B36968C1F38101022944D00228C6F860804F
:200C000004D0FFF74FFD044638E034E0FFF74AFD074604E0FFF746FDC01B02282BD8286809
:200C20008001F7D4206AB0F5803F05D16868A16820F4003008436860D4E908010843696892
:200C400021F4741108436860C6F86090FFF72AFD044606E025E000BFFFF724FD001B0228CC
:200C600009D828688001F7D51BE000BFFFF71AFD001B022802D90320BDE8F88F286880016F
:200C8000F4D40EE00128F7D06868226A00F48031914204D1616A00F47010884201D001200A
:200CA000EAE70020E8E70000001002400000424280044242200000200070004010B5401E83
:200CC000B0F1807F01D3012010BD4FF0E02460610F21601700F016FA0020A061072020613E
:200CE000002010BD70B5040004D094F83D00002510B106E0012070BD84F83C50204600F0C9
:200D000023F8242084F83D002068C16821F40051C160204600F056F92068016921F4904106
:200D200001612068416921F02A0141612068C16841F40051C1602564202084F83D0084F8EB
:200D40003E00002070BD000030B585B00024009401940294039400681449884224D1144894
:200D6000816941F480418161816901F480410491816941F00401816180690E4D00F0040042
:200D800004904FF400700090022001900320039069462846FFF78AFB2815CDE900046946D5
:200DA00028460294FFF782FB05B030BD0038014000100240000801402DE9F843044690F8E3
:200DC0003D001F4616460D4620284CD1C5B1BEB194F83C00012846D0012084F83C004FF059
:200DE0000008C4F84080212084F83D00FFF75AFCA6848146E684A068B0F5805F03D004E08B
:200E00000120BDE8F883206928B12E465FF0000584F83C800EE00026FAE78021204600F043
:200E20002DF9A0B9AEB116F8010B21684860E08C401EE084E08C4B464FF00002009700285E
:200E4000EBD14FF04001204600F018F930B10320D7E735F8020BC0F30800E6E7202084F8AF
:200E60003D000020CDE70220CBE7FEE70D4808B5816941F010018161816901F0100100910B
:200E8000816941F020018161816901F020010091816941F004018161806900F00400009038
:200EA00008BD0000001002400C4810B50A4901604FF4E1314160002181600C22C160C0E95E
:200EC00004128161C161FFF70DFF002803D0BDE81040FFF79BB910BD003801403400002022
:200EE000FEE7FEE7704770B586B000260D4604460496FFF7C7FA281BC00ACDE9024004A950
:200F000000966846FFF720FAFFF772FA06B070BD0088704710B5002304E000BF10F8014B1A
:200F2000CC545B1C9342F9D310BD70B50D46044600EB4206FFF7A6FA0AE02A8800232146FB
:200F40000120FFF75FFA08B1012070BDA41CAD1CB442F2D3FFF74CFA002070BD7047FFF7A0
:200F6000A7BB30B58FB028216846FFF71AF914210AA8FFF716F901210804CDE900100024E7
:200F8000029402250491CDE907504FF4E01009906846FFF703FD08B172B6FEE70F20CDE9D7
:200FA0000A054FF48060CDE90C4002210AA80E94FFF708FC002801D072B6FEE70FB030BDDA
:200FC0007047000070B5044600680169E26821F44051114301612169A06808436169084381
:200FE0002168CA6841F20C639A430243CA6020684169A26921F44071114341611E49206860
:20100000884202D1FFF784FC01E0FFF771FC00EBC00101EB0012606864218000B2FBF0F372
:20102000B3FBF1F36FF018067343B2FBF0F5B2FBF0F605EB8305322303EB0515B5FBF1F55B
:20104000B6FBF1F605F0F00505EB0615B2FBF0F6B2FBF0F0B0FBF1F06FF01802504306EB5A
:20106000800003EB0010B0FBF1F0216800F00F002844886070BD0000003801402DE9F0419D
:20108000984617460E460446069D1DE0681C1BD02DB1FFF707FBA0EB0800A84214D92068A0
:2010A000C16821F4D071C1602068416921F001014161202084F83D0084F83E00002084F85A
:2010C0003C000320BDE8F0812068006836EA000004D00020B842D9D00020F3E70120F9E7F9
:2010E000FEE700000FB4054B10B503A9044A029800F028F810BC5DF814FB0000F51300084F
:20110000240000200907090E002804DB00F1E02080F80014704700F00F0000F1E02080F8C1
:20112000141D704702E008C8121F08C1002AFAD170477047002001E001C1121F002AFBD1CE
:20114000704700002DE9FF4F89B09B460446002506E025280BD05A460B999047641C6D1CB9
:2011600020780028F5D10DB02846BDE8F08F0027B8460122474900E0074314F8013F203BF1
:2011800002FA03F00842F7D120782E2819D114F8010F47F004072A280ED06FF02F022078C0
:2011A000A0F1300109290CD808EB880102EB410100EB0108641CF2E70A98641C50F8048B66
:2011C0000A9020780028CED0642808D0692806D075281ED05A460B9990476D1C58E00A9942
:2011E0004FF00A0901C90A91002802DA40422D2102E0390504D52B218DF82010012103E065
:20120000F90704D02021F7E78A4608AE0DE00021FAE70A994FF00A0901C90A91F7E749469F
:20122000FEF7CAFF303106F8011D0028F7D1ADEB060000F12009780701D44FF00108C84522
:2012400002DDA8EB090000E000208046002706E008A85A46C05D0B9990476D1C7F1C574598
:20126000F6DB04E030205A460B9990476D1CB8F10001A8F10108F5DC05E016F8010B5A4609
:201280000B9990476D1CB9F10001A9F10109F4DC641C65E7092801002DE9F041124D11492D
:2012A0002846FFF720FEFFF7EDF8104E00244FF4F04700BF06EB4400FFF72AFE024605EB8B
:2012C000440100230120FFF79DF820B108A0BDE8F041FFF707BF641CBC42EBD3FFF788F83D
:2012E00009A0F4E7002003080030020800500008636F70792061707020746F206220657215
:20130000726F720A00000000636F70792061707020746F2062206F6B0A0000002DE9F04184
:2013200000F0010101EB50070F4D104E29463046FFF7D9FDFFF7A6F800240DE005EB440034
:20134000FFF7E6FD024606EB440100230120FFF759F8002806D1641CBC42EFD3BDE8F04196
:20136000FFF746B8BDE8F08100400108005000082DE9F041124D11492846FFF7B4FDFFF7B7
:2013800081F8104E00244FF4F04700BF06EB4400FFF7BEFD024605EB440100230120FFF77C
:2013A00031F820B108A0BDE8F041FFF79BBE641CBC42EBD3FFF71CF809A0F4E70040010853
:2013C0000050000800300208636F7079206220746F20617070206572726F720A0000000086
:2013E000636F7079206220746F20617070206F6B0A00000013B54FF6FF73012269460248AD
:20140000FFF7DAFC00981CBD3400002070B50446006809490840B0F1005F0CD107A0FFF750
:2014200061FE6068094D28602068FEF78DFE2868BDE87040004770BD0000FE2F6A756D705D
:2014400020746F206170700A0000000010000020FFF736F9FFF785FDFFF708FDFFF724FD3F
:2014600028A0FFF73FFE2D4F0C222B493846FFF751FD29482A4C2B4E016861604168A1605D
:201480008068E060012221463046FFF743FD254625492878401C28703046FFF724FD0122D1
:2014A00021463046FFF741FD012221463046FFF731FD29781DA0FFF715FE287808B9FFF739
:2014C000EBFE6068B0F1553F09D11DA0FFF70AFEE068FFF723FF31463846FFF704FD2878A5
:2014E000032804D91CA0FFF7FDFDFFF741FF1F48FFF78CFF1EA0FFF7F5FD6420FEF712FFEA
:20150000F8E70000626F6F6F746C6F6465722072756E696E670A0000280000200020030883
:2015200000000020002803080030030872657365742074696D6573203D2564200A000000A8
:201540006E65656420757064617461206669726D776172650A0000006261636B20626566EB
:201560006F7265206170700A0000000000500008626F6F6F746C6F646572206C6F6F7069E6
:201580006E670D0A000000000000000000000000010203040607080900000000010203042D
:2015A000C0150008000000202800000024110008E8150008280000207004000034110008BB
:2015C0000000000000000000000000000000000000000000010000001000000000000000FA
:0815E0000024F40000000000EB
:20500000100E0020CD510008EF69000805690008ED69000893540008256E0008000000006E
:20502000000000000000000000000000536A0008D754000800000000F1690008556A00084F
:20504000E7510008E7510008E7510008E7510008E7510008E7510008E7510008E751000850
:20506000E7510008E7510008E7510008E7510008E7510008E751000895540008A1540008C2
:20508000E7510008E7510008E7510008E7510008E7510008E7510008E7510008E751000810
:2050A000E7510008E7510008E7510008E7510008E7510008E7510008E7510008E7510008F0
:2050C000E7510008E7510008E7510008E7510008E75100080D6E0008E7510008E75100088D
:2050E000E7510008E7510008E7510008E7510008E7510008E7510008E7510008E7510008B0
:20510000E7510008E7510008E7510008E7510008E7510008E7510008E7510008E75100088F
:20512000E7510008E7510008E7510008E751000800F002F800F03AF80AA090E8000C82446F
:205140008344AAF10107DA4501D100F02FF8AFF2090EBAE80F0013F0010F18BFFB1A43F042
:20516000010318477422000094220000103A24BF78C878C1FAD8520724BF30C830C144BFE0
:2051800004680C60704700000023002400250026103A28BF78C1FBD8520728BF30C148BF79
:2051A0000B6070471FB51FBD10B510BD00F038F91146FFF7F7FF01F033FF00F056F903B40E
:2051C000FFF7F2FF03BC00F05DF900000948804709480047FEE7FEE7FEE7FEE7FEE7FEE7D5
:2051E000FEE7FEE7FEE7FEE704480549054A064B70470000B76A000831510008100800203F
:20520000100E0020100A0020100A0020B2F120030AD5C2F1200320FA02F001FA03F321FA49
:2052200002F140EA0300704721FA03F04FF00001704740EA010310B59B070FD1042A0DD30F
:2052400010C808C9121F9C42F8D020BA19BA884201D9012010BD4FF0FF3010BD1AB1D307AF
:2052600003D0521C07E0002010BD10F8013B11F8014B1B1B07D110F8013B11F8014B1B1BA3
:2052800001D1921EF1D1184610BD032A40F2308010F0030C00F0158011F8013BBCF1020FF9
:2052A000624498BF11F801CB00F8013B38BF11F8013BA2F1040298BF00F801CB38BF00F809
:2052C000013B11F0030300F02580083AC0F0088051F8043B083A51F804CBA0E80810F5E71E
:2052E000121D5CBF51F8043B40F8043BAFF30080D20724BF11F8013B11F801CB48BF11F85D
:20530000012B24BF00F8013B00F801CB48BF00F8012B704710B5203AC0F00B80B1E8185049
:20532000203AA0E81850B1E81850A0E81850BFF4F5AF5FEA027C24BFB1E81850A0E8185040
:2053400044BF18C918C0BDE810405FEA827C24BF51F8043B40F8043B08BF7047D20728BF35
:2053600031F8023B48BF11F8012B28BF20F8023B48BF00F8012B704702F0FF0343EA032227
:2053800042EA024200F02CB84FF0000200B5134694469646203922BFA0E80C50A0E80C50C2
:2053A000B1F12001BFF4F7AF090728BFA0E80C5048BF0CC05DF804EB890028BF40F8042B08
:2053C00008BF704748BF20F8022B11F0804F18BF00F8012B70477047704770474FF000021B
:2053E0000429C0F0128010F0030C3FF4CFAFCCF1040CBCF1020F18BF00F8012BA8BF20F879
:20540000022BA1EB0C01FFF7C1BF5FEAC17C24BF00F8012B00F8012B48BF00F8012B7047BD
:20542000754600F02BF8AE4605006946534620F00700854618B020B5FFF7D6FEBDE820400F
:205440004FF000064FF000074FF000084FF0000B21F00701AC46ACE8C009ACE8C009ACE8D7
:20546000C009ACE8C0098D46704710B50446AFF300802046BDE81040FFF7A1BE004870479C
:20548000B007002001491820ABBEFEE7260002007047FEE7014800F069B90000C80200205C
:2054A000014800F063B900008402002030B590F840500124AC40C56B6C600468636043680D
:2054C000102B036803D099600068C26030BD9A600068C16030BD704772B6FEE70649002040
:2054E000C8610648016941F004010161016941F04001016170470000900700200020024025
:20550000064A0021D16106490A6942F002020A614861086940F04000086170479007002024
:2055200000200240044B0022DA61044A136943F00103136101807047900700200020024097
:2055400014480022C168CB06134904D5CA6942F00202CA611022C3685B0705D5CB6943F00A
:205560000103CB6142F00402C369DB0707D0CB6943F00403CB61C16921F00101C161A2F54E
:205580008071013901D0C2607047C16921F00101C1617047002002409007002070B5054697
:2055A00000F032FC0646114C09E0681C07D025B100F02AFC801BA84201D9032070BDE068FD
:2055C000C007F2D1E068800601D52020E060E068C00605D4E069C00702D1E068400703D5EC
:2055E000FFF7AEFF012070BD002070BD0020024010B590F821100022022905D00421816362
:2056000080F82020012010BD01680B6823F00E030B6001680B6823F001030B6090F8403023
:20562000C46B012101FA03F3636080F8211080F82020104610BD00002DE9F05F90F82110C3
:205640000024022903D004218163012485E001680A6822F00E020A6001680A6822F001023E
:205660000A603F4E3E4FB215DFF8F4C0DFF8F090DFF8ECA0DFF8E8B0DFF8E4E00168783F70
:2056800013011502ACF1640CA9F15009AAF13C0AABF1280BAEF1140E4FF48018B14227D9A0
:2056A000B9420ED0614512D049451DD0514518D0594518D0714501D1424615E0294EB1429B
:2056C00001D1012210E0274E1436B14201D110220AE0244E2836B14206D0224A3C329142FF
:2056E00001D11A4600E02A461E49091F0A602BE0B94213D0614517D0494522D051451DD0B6
:2057000059451DD0714501D142461AE0B14202D14FF0807215E0134EB14201D1012210E0CF
:20572000104E1436B14201D110220AE00D4E2836B14206D00B4A3C32914201D11A4600E0B6
:205740002A46074980394A60012180F82110002180F82010416B01B188472046BDE8F09FCB
:205760008000024008040240806B70472DE9F05FC16B0A6801680B68046C4FF0040808FADB
:2057800004F8844D844E854FDFF814C2DFF81492DFF814A2DFF814B2DFF814E218EA020F62
:2057A00065D05FEA437862D50A68920603D40A6822F004020A60DFF8F0814FF480620168CE
:2057C00008F1140813011402414524D9A9420DD0B1420FD0B9421AD0614515D0494515D08A
:2057E000514501D1120312E0594501D104220EE0714501D140220AE06D4D1435A94206D01E
:205800006B4A2832914201D11A4600E022466749091F0A6029E0A94213D0B14215D0B94240
:2058200020D061451BD049451BD0514502D14FF4800217E0414502D14FF0806212E059453F
:2058400001D104220EE0714501D140220AE0584D1435A94206D0564A2832914201D11A46E0
:2058600000E022464B4908394A60C16A71E04FF0020808FA04F818EA020F70D05FEA837807
:205880006DD50A68920606D40A6822F00A020A60012180F82110DFF810814FF40072016897
:2058A00008F1140813011402414524D9A9420DD0B1420FD0B9421AD0614515D0494515D0A9
:2058C000514501D1120312E0594501D102220EE0714501D120220AE0354D1435A94206D097
:2058E000334A2832914201D11A4600E022462F49091F0A6029E0A94213D0B14215D0B942D0
:2059000020D061451BD049451BD0514502D14FF4001217E0414502D14FF0007212E059453E
:2059200001D102220EE0714501D120220AE0204D1435A94206D01E4A2832914201D11A4691
:2059400000E02246134908394A60002180F82010816A00291CD0BDE8F05F0847FFE7082599
:20596000A540154214D01A0712D50A6822F00E020A6090F84020C36B012101FA02F25A6020
:20598000816380F82110002180F82010016BE0E7BDE8F09F080002401C0002403000024030
:2059A00044000240580002406C000240080402401C04024030B560B11A4B026814219A4293
:2059C00009D2194B1344B3FBF1F18900016417490AE0012030BD134B5B421344B3FBF1F179
:2059E000890001640F490839C163022180F82110136843F6F0718B43F0E901142143D0E942
:205A000002452C432143046921434469214384692143194311600021416301224277017753
:205A2000084630BD08040240F8FFFDBF0000024070B5044690F82000002501280CD0012086
:205A400084F8200094F821600020012E06D084F820000225284670BD022070BD022684F827
:205A60002160A0632068066826F0010606602046FFF71CFDE06A00282068016802D041F04E
:205A80000E0106E021F0040101602068016841F00A0101602068016841F001010160D9E7C7
:205AA0002DE9F047054626480F460126017E01290FD00121814601762868DFF888804CF2CF
:205AC0005034022808D0A2462046FFF767FDA8B131E00220BDE8F0872046FFF75FFD08BB75
:205AE0000120FFF7FBFC2046FFF758FDD8F81010064621F00401C8F810101CE04FF0FF304B
:205B00003860AC6811E02046FFF7FAFC5046FFF745FDD8F81010060021F00201C8F81010DE
:205B200001D03C6007E004F50064D5E9020100EBC120A042E7D8002189F818103046C9E796
:205B400090070020002002400348016941F080010161002070470000002002402DE9F05FC5
:205B600007461C4888460024017E15461E46012909D00121814601764CF2503A5046FFF78D
:205B80000DFD18B122E00220BDE8F09F012F02D0022F00D00427D346DFF83CA0220128464F
:205BA0003146FFF733FB81B208EB4400FFF7BAFC5846FFF7F3FCDAF8102022F00102CAF8D8
:205BC000102018B9641CE4B2BC42E7D3002289F81820D9E7900700200020024006490020D3
:205BE0000A69120607D5054A4A60054A4A600969090600D5012070470020024023016745EC
:205C0000AB89EFCD2DE9F84FDFF8C891002409F1040A0AF1040B23460F270BF1040ED1E073
:205C20000125A54006EA0502AA4276D1DFF8A8C14E68A6EB0C0866452BD00DDC032E34D0D0
:205C400005DC36B3012E19D0022E2FD11BE0112E16D0122E2AD119E0B8F5881F19D006DCBF
:205C6000B8F5803F15D0B8F5801F1FD111E0B8F5001F0ED0B8F5041F18D10AE0CB6815E031
:205C8000CB681B1D12E0CB6808330FE0CB680C330CE08B682BB1012B4FF0080303D045612E
:205CA00004E0042302E0056100E00023FF2A01D8064601E000F104064FEA840501D9A5F132
:205CC0002005D6F8008007FA05FC28EA0C0803FA05F548EA0508C6F800804D68ED0070D5CE
:205CE0003E4DAE6946F00106AE61AD6924F0030605F0010500953A4D06EB050CDCF808503E
:205D0000A607360F07FA06F825EA0805DFF8D480404503D14FF0000825E052E0DFF8C88055
:205D2000404502D14FF001081DE0DFF8C080404502D14FF0020816E0DFF8B480404502D1B5
:205D40004FF003080FE0DFF8AC80404502D14FF0040808E0DFF8A080404502D14FF00508E1
:205D600001E04FF0060808FA06F848EA0508CCF808804D68D9F80060ED034D4601D51643D2
:205D800000E096432E604D68DAF80060AD03554601D5164300E096432E604D68DBF800602C
:205DA000ED025D4601D5164300E096432E604D68DEF80060AD02754601D5164300E096439E
:205DC0002E60641C0A681646E2407FF429AFBDE8F88F000000040140000011100010024096
:205DE0000000014000080140000C0140001001400014014000180140001C01400AB1016153
:205E000070470904FBE700000148806870470000300000200248816802781144816070470A
:205E200030000020074810B5016841F010010160032000F075F80F2000F006F800F024F849
:205E4000002010BD0020024070B50D4D04464FF47A712878B1FBF0F00A490968B1FBF0F080
:205E600000F0ECFA48B9102C07D200222146501E00F036F800206C6070BD012070BD0000BA
:205E8000300000203C0000200C4808B5816941F001018161816901F001010091C16941F07D
:205EA0008051C161C06900F0805000900448416821F0E06141F00071416008BD00100240D5
:205EC00000000140002809DB00F01F02012191404009800000F1E020C0F800117047000037
:205EE000F0B40E4B1B680C46C3F30223C3F10705042D00D90425191D072901D2002300E0C6
:205F0000DB1E012606FA05F1491E214099409E40761E16403143F0BC00F0BCBF0CED00E09E
:205F2000064900F0070208684FF6FF03184040EA0220034A10430860704700000CED00E026
:205F40000000FA052DE9F0470F46050061D0434E306800F00700B84209D2306820F00700C6
:205F600038433060306800F00700B84251D128683B4C810712D5400703D5606840F4E0608A
:205F800060602878000703D5606840F4605060606068A96820F0F000084360602878C0070B
:205FA00028D06868012810D02168022810D0890700292EDA616821F0030101436160FFF7E3
:205FC00023FF804641F288390DE021688903EFE78901EDE7FFF718FFA0EB0801494502D9A5
:205FE0000320BDE8F0876068696800F00C00B0EB810FEFD1306800F00700B8420BD93068DD
:2060000020F0070038433060306800F00700B84201D00120E5E72878400705D56068E9683D
:2060200020F4E060084360602878000706D56068296920F4605040EAC100606000F038F896
:206040006168084AC1F30311515CC8400649086006480068FFF7F8FE0020C2E70020024024
:2060600000100240C07300083C000020340000200448054900684968044AC1F30221515C5E
:20608000C84070473C00002000100240D07300080448054900684968044AC1F3C221515C03
:2060A000C84070473C00002000100240D073000812A185B00FC98DE80F0014A0144A00686A
:2060C00004905168134801F00C03042B10D0082B0ED1C1F38343C9031DF803000AD5516801
:2060E00004AAC1F34041515C0A4A5043B0FBF1F005B0704708494843FAE700000203040566
:20610000060708090A0B0C0D0E0F1010010200000010024000127A0000093D002DE9F84F72
:20612000040070D02078C04DC00749D06868C0F38100012807D06868C0F38100022809D18A
:206140006868C00306D52868800339D560680028E7D035E06068B0F5803F0BD010B1B0F587
:20616000A02F11D0286820F480302860286820F4802002E0286840F480302860606890B168
:20618000FFF742FE06460AE0286840F480202860F0E700BFFFF738FE801B642873D82868E3
:2061A0008003F7D50CE0FFF72FFE064605E000BFFFF72AFE801B6428F0D828688003F7D4A6
:2061C00020789A4E80074FF001094FF0000839D5686810F00C0F07D06868C0F3810002282A
:2061E00009D16868C00306D42868800714D52069012808D110E02069B0B1C6F80090FFF7AF
:2062000003FE074605E00AE1FFF7FEFDC01B0228C4D828688007F7D52868616920F0F80089
:2062200040EAC10028600DE0C6F80080FFF7ECFD074604E0FFF7E8FDC01B022823D8286845
:206240008007F7D4207800072CD57948A169D9B1C0F80090FFF7D8FD074604E0FFF7D4FDEC
:20626000C01B02280FD8686A8007F7D571484FF4FA510068B0FBF1F0009000BF0098411E8C
:206280000091FAD20EE080E0C0F80080FFF7BCFD074604E0FFF7B8FDC01B022875D8686A6C
:2062A0008007F7D42078400760D5E8690027C00008D4E86940F08050E861E869012700F061
:2062C000805000905C480168C90513D40168834641F480710160FFF797FD824606E000BFEC
:2062E000FFF792FDA0EB0A0064284ED8DBF80000C005F5D5E06801280AD008B1052813D05C
:20630000286A20F001002862286A20F0040002E0286A40F001002862E06841F2883B98B1F4
:20632000FFF772FD82460BE0286A40F004002862EEE700BFFFF768FDA0EB0A0159455AD8A0
:20634000286A8007F6D50CE0FFF75EFD824605E0FFF75AFDA0EB0A0159454CD8286A8007B1
:20636000F6D41FB1E86920F08050E861E06988B36968C1F38101022944D00228C6F8608077
:2063800004D0FFF741FD044638E034E0FFF73CFD074604E0FFF738FDC01B02282BD828685C
:2063A0008001F7D4206AB0F5803F05D16868A16820F4003008436860D4E9080108436968BB
:2063C00021F4741108436860C6F86090FFF71CFD044606E025E000BFFFF716FD001B022811
:2063E00009D828688001F7D51BE000BFFFF70CFD001B022802D90320BDE8F88F28688001A6
:20640000F4D40EE00128F7D06868226A00F48031914204D1616A00F47010884201D0012032
:20642000EAE70020E8E700000010024000004242800442423C0000200070004010B5401E8F
:20644000B0F1807F01D3012010BD4FF0E02460610F21601700F01EFD0020A061072020615B
:20646000002010BD704770B504460068C16821F49071C1602068416921F001014161206BCF
:20648000012804D12068C16821F01001C160206841694FF0000549060FD5416921F0400165
:2064A0004161A06B48B14563A06BFFF7A1F820B1A06BFFF759F9202806D0E585202084F88C
:2064C0003E002563002070BD10202064032070BD70470000F8B5026804461068D168536920
:2064E00010F00F0F4FF0000553D003F0010601F4907737435FD0C20705D0CA0503D5226CA5
:2065000042F001022264420705D5DA0703D0226C42F002022264820705D5DA0703D0226CFA
:2065200042F004022264020707D501F02002324303D0226C42F008022264226C002A34D051
:20654000800604D5880602D5204600F03DFB20684069216CC0F38010090700D430B32046BB
:2065600000F011FB2068416949061BD5416921F040014161A06BA8B158494163A06BFFF766
:206580005BF8002811D0A06B416B01B0BDE8F040084783060FD58B060DD52046BDE8F840F0
:2065A00000F012BB2046FFF793FFF8BD2046FFF78FFF2564F8BD266B2023012E52D1C60661
:2065C00050D5CE064ED5106850680090506940062AD5A16B086840680004000CEAD0A68DC0
:2065E0008642E7D9E0858869202818D0D06820F48070D0602068416921F0010141612068B2
:20660000416921F04001416184F83E3025632068C16821F01001C160A06BFEF7E9FFA08D61
:20662000E18D401A81B219E0A08DE18D401A81B2E08D0028BED00029BCD0D06820F490701A
:20664000D0602068426922F00102426184F83E3025632068C26822F01002C2602046FFF759
:2066600001FFF8BD05062BD50D0629D594F83D002128F6D1A068B0F5805F01D12069B0B128
:20668000206A411C2162216800784860E08C401E0004000CE084E4D12068C16821F08001B1
:2066A000C1602068C16841F04001C160F8BD206A0088C0F308005060206A801C2062E5E7CF
:2066C0004006F3D54806F1D5D168204621F04001D16084F83D3000F014F9F8BDB96A0008B0
:2066E00070B5040004D094F83D00002510B106E0012070BD84F83C50204600F023F82420FD
:2067000084F83D002068C16821F40051C160204600F0B6FA2068016921F4904101612068C0
:20672000416921F02A0141612068C16841F40051C1602564202084F83D0084F83E0000201D
:2067400070BD0000F0B585B000240646009401940294039400682D49884254D12C48816941
:2067600041F480418161816901F480410491816941F0040181618069264D00F00400049026
:206780004FF400700090022001900320039069462846FFF737FA2815CDE9000469462846F5
:2067A0000294FFF72FFA1D4D1B488027C5E90004C5E902472C616C61AC612846EC61FFF7EF
:2067C000F9F808B1FEF788FEB5636E62134D12484435143801C5102091C5104845F81049F3
:2067E00044306C61AC61EC61FFF7E4F808B1FEF773FE75630022114625206E62FFF770FB46
:206800002520FFF75FFB05B0F0BD000000380140001002400008014058000240840200202D
:2068200090F83E30202B0ED159B152B190F83C30012B08D0012380F83C300023036300F0B2
:206840007BBA01207047022070477047704700002DE9F843044690F83D001F4616460D4670
:2068600020284CD1C5B1BEB194F83C00012846D0012084F83C004FF00008C4F840802120EA
:2068800084F83D00FFF7C0FAA6848146E684A068B0F5805F03D004E00120BDE8F883206927
:2068A00028B12E465FF0000584F83C800EE00026FAE78021204600F077FAA0B9AEB116F8DC
:2068C000010B21684860E08C401EE084E08C4B464FF0000200970028EBD14FF040012046AE
:2068E00000F062FA30B10320D7E735F8020BC0F30800E6E7202084F83D000020CDE70220D9
:20690000CBE77047FEE700000D4808B5416941F0010141614069002200F0010000901146F5
:206920000E20FFF7DDFA0E20FFF7CCFA002211460F20FFF7D5FABDE808400F20FFF7C2BA77
:206940000010024070B586B0002418480094019402940394816941F010018161816901F0C7
:2069600010010491816941F020018161816901F020010491816941F00401816180690C4E7D
:2069800000F004004FF480750490002229463046FFF734FA01200095CDE9010402200390E6
:2069A00069463046FFF72EF906B070BD00100240000801400C4810B50A4901604FF4E131F5
:2069C0004160002181600C22C160C0E904128161C161FFF785FE002803D0BDE81040FEF7A4
:2069E0007BBD10BD0038014040020020FEE7FEE7704770B586B000260D4604460496FFF788
:206A0000EDF8281BC00ACDE9024004A900966846FFF746F8FFF798F806B070BD00787047CF
:206A200070B50D46044600EB4206FFF7D7F80AE02A88002321460120FFF790F808B10120FD
:206A400070BDA41CAD1CB442F2D3FFF77DF8002070BD7047FFF7DEB930B58FB028216846AE
:206A6000FEF792FC14210AA8FEF78EFC01210804CDE900100024029402250491CDE90750B6
:206A80004FF4E01009906846FFF748FB08B172B6FEE70F20CDE90A054FF48060CDE90C4064
:206AA00002210AA80E94FFF74DFA002801D072B6FEE70FB030BD704710B5406A0021C185E3
:206AC000C184FFF705FD10BD70B5446A2068406994F83D10C0F3C0100025212904D118B13F
:206AE000E584204600F067F82068406994F83E10C0F38010222904D118B1E585204600F081
:206B000042F8206C40F0100020642046FFF7E0FC70BD10B50146406A0968096889061BD470
:206B20000021C1850168CA6822F48072CA6001684A6922F001024A6101684A6922F04002D5
:206B40004A61202180F83E10016B012904D10168CA6822F01002CA60016B012902D0FFF7D1
:206B600074FE10BD818DFFF77DFC10BD10B5406A016B012902D0FFF769FE10BD818D49082C
:206B8000FFF770FC10BD0168CA6822F49072CA6001684A6922F001024A61016B012904D1A2
:206BA0000168CA6822F01002CA60202180F83E100021016370470168CA6822F0C002CA6010
:206BC000202180F83D10704708B590F83E10222901D0022008BD82684FF480539A4201D1B4
:206BE000016921B1816A9A421BD04AB10AE00268816A5268C2F308020A80816A891C08E0F2
:206C0000026972B10268526802F07F020A70816A491C8162C18D491E0904090CC18503D0B2
:206C200019E002685268F1E70168CA6822F02002CA600168CA6822F48072CA6001684A697D
:206C400022F001024A61202180F83E10016B012903D0FFF7FAFD002008BD00210163016844
:206C6000CA6822F01002CA6001680A68D20602D50A6849680091818DFFF7F4FBEBE7000091
:206C800070B5044600680169E26821F44051114301612169A0680843616908432168CA6860
:206CA00041F20C639A430243CA6020684169A26921F44071114341611E492068884202D161
:206CC000FFF7E6F901E0FFF7D3F900EBC00101EB0012606864218000B2FBF0F3B3FBF1F3A3
:206CE0006FF018067343B2FBF0F5B2FBF0F605EB8305322303EB0515B5FBF1F5B6FBF1F639
:206D000005F0F00505EB0615B2FBF0F6B2FBF0F0B0FBF1F06FF01802504306EB800003EB67
:206D20000010B0FBF1F0216800F00F002844886070BD00000038014038B581628285002539
:206D4000134604460564222084F83E00A26B13489062A26B1248D062A26B12481063A06B53
:206D60000A4645632168A06B091DFEF761FE206801684168009184F83C50C16841F480718B
:206D8000C1602068416941F0010141612068416941F040014161002038BD0000136B0008EA
:206DA0006D6B0008C96A00082DE9F041984617460E460446069D1DE0681C1BD02DB1FFF7B5
:206DC00023F8A0EB0800A84214D92068C16821F4D071C1602068416921F0010141612020DF
:206DE00084F83D0084F83E00002084F83C000320BDE8F0812068006836EA000004D000200B
:206E0000B842D9D00020F3E70120F9E710B50448FFF760FBBDE81040014800F005B8000087
:206E200040020020FEE7000038B5016805460868C043C00625D41348814222D10868486807
:206E40000090086848681048006840680F4C80B2C0F5807060802846FFF705FB207840B913
:206E6000628832B101200A49207001F58070FEF751FA2846BDE838404FF480720449FFF718
:206E8000CFBC38BD003801408402002002000020400000200907090E002804DB00F1E020B2
:206EA00080F80014704700F00F0000F1E02080F8141D704730B50023064D08E011F8014BA7
:206EC0004440E4B25B1C55F8244084EA10209342F4D330BD8C03002070B5002120230A46C1
:206EE0000125C40704D09E1A761E05FA06F421434008521C9A42F4DB094C002210460023D3
:206F0000C50702D081EA500000E040085B1C082BF6DB44F82200521CFF2AEFDD70BD000087
:206F20008C0300202DE9F04387B081460020394D00900190029028780C4600F003008DF898
:206F40000C0068788DF80D00D1F801000490B1F80500ADF81400B4F80700ADF81800607AA4
:206F6000A17A904600EB0120E17A227B090401EB02614718A5F11406D4F80D0070620422E0
:206F800004A9281DFEF755F908B1052515E0022205A903A8FEF74DF908B104250DE0022239
:206FA00006A9A81CFEF745F920B1B7F5003F03D9032502E0022500E0002570788DF80000F0
:206FC0007F208DF8010009208DF80200A2208DF804008DF805508DF803808DF8069007216C
:206FE0000022684600F056F88DF80700000A8DF808009DF80210684600F0D4F9002D06D14A
:207000002078012803D104490448FFF7F2FC07B0BDE8F0831C0000200030020800400108D0
:20702000154914480860FEF7FDFEFFF715FDFFF789FCFFF769FCFFF7BDFC4FF480720F4924
:207040000F48FFF7EDFB0E480068C16841F01001C1600C4C21460846FFF7CBFC01220A4971
:207060002046FFF7DDFC094C0948217800F074F9FAE700000050000808ED00E040000020D1
:20708000400200200028030800000020040000204001002070B5044632B11088002C14D0BC
:2070A00000224AF201050EE04FF6FF70F6E7A35C58400023C6074FEA500000D068405B1CEE
:2070C000082BF7D3521C8A42F1D370BD70B50446037814480125437062788270A678E17826
:2070E000C17021794171617901710078834216D17F2A01D0042513E0FF2901D003250FE0FD
:207100000022B11E2046FFF7C5FFA11911F8022D497802EB0121814202D0022500E00525D6
:20712000284670BD080000202DE9F04FC9B005460020409041904290401E43908946287840
:207140006978EA7800EB0120A978DFF8F0A1090401EB0261461828796979EA7900EB0120AB
:20716000A979774C090401EB026108442F7A00EB0A01E161F109618106F07F012181C119D3
:20718000CA098846E28101F07F01A181C0F3CF11E180494200EBC110638A6A4923826282F4
:2071A00008443A4605F10901FEF76FF8608A218A88420ED0E188206A402200EBC1106149AF
:2071C000FFF72EFCA289B81A41195E480931FEF75CF8E0695949384449420844B0420ED100
:2071E000208950B100F0010101EB5002E189206A00EBC1105349FFF713FCA12500E0002599
:2072000060788DF800017F208DF801010C208DF80201A3208DF804018DF805518DF8068102
:207220004FEA18218DF807114FEA18418DF808114FEA18608DF809018DF803910A21002269
:2072400040A8FFF727FF8DF80A01000A8DF80B019DF8021140A800F0A5F8A12D6AD1FF20BA
:20726000B6FBF0F1B6FBF0F500FB11693648FFF733FE0027EB4614E0C7EB072808EB0401A7
:2072800001EB0A00FFF7CAFB0BF80400641CE4B2FF2CF3D3FF2269464398FFF70BFE7F1CEA
:2072A0004390AF424FF00004E6D3C5EB052508E0291901EB0A00FFF7B1FB0BF80400641CEB
:2072C000E4B248464C45F3D3024669464398FFF7F1FDC4438DF81C41200A8DF81D01200C9B
:2072E0008DF81E01200E8DF81F011548042247A92430FDF79EFF00281CD107210846FFF73E
:2073000078FB5522042144A8FEF736F8CDE94546062244A90D48FFF783FBBFF34F8F0C484C
:2073200001680C4A01F4E06111430160BFF34F8F00BFFDE749B0BDE8F08F0000004001080A
:20734000080000200C030020B71DC104002003080CED00E00400FA0510B504460F48027856
:20736000012A19D1002202702046FFF7AFFE012812D10B484079A22807D0A3280CD1E178A1
:20738000A01DBDE81040FFF7CFBEE278A078A11DBDE81040FFF7C6BD10BD0000020000202B
:2073A00008000020002808D0002906D00A4601464FF6FF730148FFF74BBA704740020020FB
:2073C000000000000000000001020304060708090000000001020304F873000800000020E8
:2073E000400000006C5100083874000840000020D00D0000885100080000000000000000B6
:2074000001000000000000000000000000000000000000008601020604000000004001088F
:1874200000400108000000000100000010000000000000000024F400E2
:00000001FF
