:020000040800F2
:10000000E00400209D010008F31A00089F19000871
:10001000F11A000831090008691E000800000000FC
:10002000000000000000000000000000F71A0008B7
:100030003309000800000000F51A0008F91A00084A
:10004000B7010008B7010008B7010008B7010008B0
:10005000B7010008B7010008B7010008B7010008A0
:10006000B7010008B7010008B7010008B701000890
:10007000B7010008B7010008B7010008B701000880
:10008000B7010008B7010008B7010008B701000870
:10009000B7010008B7010008B7010008B701000860
:1000A000B7010008B7010008B7010008B701000850
:1000B000B70100089D1B0008B7010008B701000840
:1000C000B7010008B7010008B7010008B701000830
:1000D000B7010008B7010008B7010008B701000820
:1000E000B7010008B7010008B7010008B701000810
:1000F000B7010008B7010008B7010008B701000800
:10010000B7010008B7010008B7010008B7010008EF
:10011000B7010008B7010008B7010008B7010008DF
:10012000B7010008B7010008B7010008B7010008CF
:10013000B7010008B7010008B7010008B7010008BF
:10014000B7010008B7010008B7010008B7010008AF
:10015000B7010008B7010008B7010008B70100089F
:10016000B7010008B7010008B7010008B70100088F
:10017000B7010008B7010008B7010008000000003F
:10018000B7010008B7010008DFF80CD000F018FB39
:100190000048004701280008E00400200648804786
:1001A00006480047FEE7FEE7FEE7FEE7FEE7FEE75C
:1001B000FEE7FEE7FEE7FEE7811B00088901000875
:1001C0002DE9F05F0546002092469B46884606468C
:1001D000814640241BE0284641464746224600F01F
:1001E00005F953465A46C01A914110D31146184694
:1001F000224600F0ECF82D1A67EB01084F46224624
:100200000120002100F0E3F817EB00094E41201E09
:10021000A4F10104DFDC484631462A464346BDE8E6
:10022000F09FD2B201E000F8012B491EFBD27047CB
:100230000022F6E710B513460A4604461946FFF7B2
:10024000F0FF204610BD2DE9FE4F81EA030404F0C3
:10025000004421F0004100944FF0000B23F00043D4
:1002600050EA01045ED052EA03045BD0C3F30A549F
:10027000C1F30A552C44A4F2F3340194A0FB0254B8
:10028000C1F3130141F48011C3F3130343F480134A
:1002900001FB024400FB034E840A970A44EA81549E
:1002A00047EA8357A4FB076802958D0A05FB07857B
:1002B0004FEA932C04FB0C542705029D4FEA065885
:1002C00047EA1637B5EB08056EEB070C870E920E62
:1002D00047EA811742EA8312A7FB0201B6EB0B0142
:1002E00064EB00042B0D43EA0C335E1844EB1C5006
:1002F000DA465146E7FB0201C5F313044FEA0B331C
:1003000043EA14534FEA0432019C43EA0603A4F182
:100310000C040294009CCDE900B400F0BDF803B0D9
:10032000BDE8F08F00200146F9E70EB540F23341F9
:1003300002910021CDE900110A460B4600F0ACF80D
:1003400003B000BD00F0004230F000400AD0C10D03
:1003500001F56071C0F3160042EA0151C20840077E
:100360001143704700200146704701F0004330B44C
:1003700021F0004150EA010206D00A0DA2F5607298
:10038000C1F31301002A02DC30BC00207047440F87
:1003900044EAC104C100E01830BC00EBC25000F0D8
:1003A00035B830B50B46014600202022012409E073
:1003B00021FA02F59D4205D303FA02F5491B04FA1E
:1003C00002F52844151EA2F10102F1DC30BD202AFD
:1003D00004DB203A00FA02F1002070479140C2F19C
:1003E000200320FA03F3194390407047202A04DBCE
:1003F000203A21FA02F00021704721FA02F3D0409E
:10040000C2F1200291400843194670470029A8BF55
:100410007047401C490008BF20F00100704710B42D
:10042000B0FA80FC00FA0CF050EA010404BF10BCE2
:10043000704749B1CCF1200421FA04F411FA0CF10F
:1004400018BF012121430843A3EB0C01CB1D4FEA48
:1004500000614FEA102042BF002010BC704700EB43
:10046000C35010440029A4BF10BC7047401C490071
:1004700008BF20F0010010BC704710B5141E73F1C6
:10048000000408DA401C41F1000192185B411A4354
:1004900001D120F0010010BD2DE9F04D92469B46A0
:1004A00011B1B1FA81F202E0B0FA80F22032904646
:1004B000FFF78DFF04460F4640EA0A0041EA0B01B0
:1004C00053465A46084313D0114653EA010019D047
:1004D000C8F140025046FFF789FF05460E465046D8
:1004E00059464246FFF773FF084305D0012004E058
:1004F00020463946BDE8F08D0020054346EAE07607
:100500002C4337430A986305E40AA0EB0800002255
:10051000FD0A44EA47540A3002D500200146E9E7C3
:10052000010510196941DDE9084500196941BDE877
:10053000F04DA2E72DE9FE4F804681EA0300C00F8F
:100540000C46009021F0004123F00045B8EB02007A
:10055000A94105D24046214690461C460B4602461C
:1005600023F00040104347D0270DC7F30A00C3F320
:100570000A510290401A019040286BDAC3F313002D
:1005800040F4801B0098924620B10023D2EB030A6E
:1005900063EB0B0B01985946C0F140025046FFF740
:1005A00016FF06460D4650465946019A00F01AF9C4
:1005B00010EB08006141002487EA115284EAE773D6
:1005C0001A4340D0009A62B3019A012A4FEA0752B7
:1005D00015DC001B61EB02014FF0004202EA0752FA
:1005E000CDE90042001C41F5801132462B46FFF751
:1005F00053FF03B0BDE8F08F40462146F9E7001BEA
:1006000061EB0201001C41F5801300185B412018CA
:10061000A2F5001747EB030140EAD570B6196D410A
:1006200011E06D084FEA360645EAC0754FEA0752F9
:10063000001B61EB0201001C41F5801149084FEAE3
:1006400030000019514132462B4603B0BDE8F04F4F
:10065000FFF713BF0098012240000023D0EB0202F5
:1006600063EBE073009821464FEAE074B8EB0000BA
:1006700061EB0401E9E783F000435BE781F00041AF
:1006800058E72DE9F04D81EA030404F0004B21F016
:10069000004514464FF0000A23F0004150EA0502DD
:1006A00020D054EA01021DD0C5F30A570246C5F313
:1006B0001303C1F31300C1F30A5640F4801543F449
:1006C0008013A7EB0608101BD64608F2FD3873EB23
:1006D000050002D308F1010801E092185B41B8F16E
:1006E000000F03DA00200146BDE8F08D00204FF432
:1006F0008011064684460EE0171B73EB050705D3F1
:10070000121B63EB050306434CEA010C49084FEA50
:10071000300092185B4150EA0107EDD152EA030024
:1007200012D082EA040083EA0501084305D0101BB9
:10073000AB4106D20122002306E000224FF0004325
:1007400002E06FF0010253101AEB06004CEB085167
:1007500010EB0A0041EB0B01BDE8F04DFFF78DBE39
:10076000C1F30A52C1F3130140F2FF3341F4801187
:100770009A4202DA00200146704740F233439A421F
:10078000A2F2334202DC5242FFF730BEFFF71FBE37
:1007900030B5041E71F1000404DB4FF00044404208
:1007A00064EB0101141E73F1000405DB1C464FF0DD
:1007B0000043524263EB0403994208BF904230BDAC
:1007C000064C074D06E0E06840F0010394E807009E
:1007D00098471034AC42F6D3FFF7DAFC50280008F3
:1007E00070280008202A06DBCB17203A41FA02F0D5
:1007F00043EAE07306E041FA02F3D040C2F120027E
:100800009140084319467047464910B54A6822F49A
:1008100040324A604A6843681A434A6001684A683D
:1008200022F480724A6001684A68036942EA03223E
:100830004A6001684A6822F040724A6001684A686A
:1008400083681A434A6001688A6822F400628A60F9
:1008500001688A68C3681A438A60816A6FF07062AF
:10086000D14201688A6822F070628A6001688A68F1
:100870000CD0836A1A438A6001688A6822F0405269
:100880008A6001688A68C36A1A4301E022F0405214
:100890008A6001688A6822F002028A6001688A68B8
:1008A000037E42EA43028A6090F820100029016822
:1008B0004A680FD042F400624A6001684A6822F434
:1008C00060424A6001684A68174C436A04EB43334C
:1008D0001A4301E022F400624A600168CA6A22F405
:1008E0007002CA620168CA6A838B104C04EB03531E
:1008F0001A43CA6201688A6822F400728A60016839
:100900008A6890F8303042EA43228A6001688A6837
:1009100022F480628A6001688A68406942EA802025
:10092000886010BD0023014000E0FFFF0000F0FFE1
:10093000FEE770477047000078B50024009490F8F7
:100940003C20012A19D0012280F83C200A680723A4
:100950000568092A13D9EE680A3A02EB420293406D
:100960009E43EE600B788A680A3B03EB43039A4090
:100970000368DD682A43DA6010E0022078BD2E6942
:1009800002EB420293409E432E610B788A6803EB90
:1009900043039A4003681D692A431A614A681F236A
:1009A000072A13D205686E6B521E02EB8202934037
:1009B0009E436E630B790A885B1E92B203EB83033E
:1009C0009A4003685D6B2A435A6327E005680D2A45
:1009D00012D22E6BD21F02EB820293409E432E63F3
:1009E0000B790A88DB1F92B203EB83039A400368FA
:1009F0001D6B2A431A6311E0EE6A0D3A02EB820284
:100A000093409E43EE620B790A880D3B92B203EB52
:100A100083039A400368DD6A2A43DA62164B05684D
:100A2000144A9D4206D10D68122D03D1556845F434
:100A30008005556005689D4218D10B68102B01D0C8
:100A4000112B13D1536843F4000353600968102934
:100A50000CD10A490A4A0968B1FBF2F101EB8101A4
:100A6000490000E0491E00910029FBD180F83C407C
:100A7000002078BD00230140002001400400002038
:100A800040420F000068C06C704770B504004FF022
:100A9000000503D0206C002610B107E0012070BDD6
:100AA000204600F01DF8666484F83C60206CC006A7
:100AB00010D4206C20F4885040F0020020642046BE
:100AC000FFF7A2FE6664206C20F0020040F00100F7
:100AD000206400E0012584F83C60284670BD0000D9
:100AE00010B586B0044614216846FFF7A1FB1149F2
:100AF000206888421CD110480021026842F48062BC
:100B00000260006800F4806005900B4814380268A9
:100B100042F020020260006800F0200005900820EA
:100B200000900320CDE901016946044800F07EF8F9
:100B300006B010BD002201404438024000140240BB
:100B400018B50021009190F83C20012A07D001221D
:100B500080F83C2002689368DB0702D011E0022095
:100B600018BD936843F0010393602A4A2A4B126828
:100B7000B2FBF3F202EB420200E0521E0092002AA6
:100B8000FBD102689368DB0741D0036C40F201643B
:100B9000A34343F48073036453685B0505D5036C7A
:100BA00023F4005343F480530364036CDB0404D543
:100BB000436C23F00603436400E0416480F83C107A
:100BC00016496FF02203136049680068CA06144989
:100BD00006D088421BD1816811F0405F13D016E027
:100BE0008842F8D00F4A904203D1D1F80423D206AC
:100BF000F1D00D4A90420AD1D1F8041301F01F013F
:100C00001029E8D303E0816841F080418160002031
:100C100018BD00000400002040420F0000230140E6
:100C20000020014000210140002201402DE9F84F41
:100C300000224FF0010803254FF00F0E0B6808FA51
:100C400002F42340A3426ED14E68012E05D0022E3D
:100C500003D0112E01D0122E12D186684FEA420C19
:100C600005FA0CF7BE43CF6807FA0CF737438760E5
:100C70004668A6430C79C4F300149440344344609E
:100C8000C668570005FA07FC8C6826EA0C06BC40CB
:100C90003443C4604C68022C01D0122C13D1D40808
:100CA00000EB8404A346D4F8209054074FEAD46A9A
:100CB0000EFA0AF629EA06090E6906FA0AF646EA63
:100CC0000906CBF8206006680C7926EA0C0604F0C9
:100CD0000304BC40344304604C68E40065D5364CE2
:100CE000266846F480462660246822F0030604F451
:100CF00080440094314C3444A446D4F80848960704
:100D0000370F0EFA07F6B4432D4EB04201D100263C
:100D100024E02C4EB04201D101261FE02A4EB04201
:100D200002D102261AE040E0284EB04201D103264B
:100D300014E0274EB04201D104260FE0254EB04208
:100D400001D105260AE0244EB04201D1062605E075
:100D5000224EB04201D1072600E00826BE402643BD
:100D6000CCF808681E4E34684F689C43FF0300D5DA
:100D70001C4334601A4C241D26684F689E43BF03F1
:100D800000D51E432660164E083634684F689C43D3
:100D9000FF0200D51C433460114E0C3634684F6896
:100DA0009C43BF0200D51C433460521C102AFFF440
:100DB00045AFBDE8F88F00004438024000300140E4
:100DC000000002400004024000080240000C024003
:100DD000001002400014024000180240001C0240B3
:100DE000003C014001488068704700000800002076
:100DF0000248816802781144816070470800002031
:100E00000B4810B5016841F400710160016841F4BC
:100E100080610160016841F480710160032000F08D
:100E20006FF8002000F006F800F024F8002010BD54
:100E3000003C024070B50D4D04464FF47A7128789D
:100E4000B1FBF0F00A490968B1FBF0F000F002FBD9
:100E500048B9102C07D200222146501E00F030F86D
:100E600000206C6070BD012070BD000008000020F3
:100E7000040000200A4808B5016841F4804101607F
:100E8000006800F4804000900548001F016841F0B0
:100E900080510160006800F08050009008BD0000A3
:100EA00044380240002809DB00F01F020121914074
:100EB0004009800000F1E020C0F8001170470000F8
:100EC000F0B40E4B1B680C46C3F30223C3F10705B5
:100ED000042D00D90425191D072901D2002300E0A3
:100EE000DB1E012606FA05F1491E214099409E406D
:100EF000761E16403143F0BC00F0C8BF0CED00E098
:100F0000064900F0070208684FF6FF03184040EA60
:100F10000220034A10430860704700000CED00E017
:100F20000000FA052DE9F0470E46050065D0DFF810
:100F30001481D8F80000F7B200F00F00B04207D2D9
:100F400088F80070D8F8000000F00F00B04254D1CB
:100F500028683D4C810712D5400703D5206840F42E
:100F6000E05020602878000703D5206840F46040F6
:100F700020602068A96820F0F000084320602878ED
:100F8000C0072DD0304968680839012812D00228DE
:100F900013D0032811D00968890700292DDA2168A8
:100FA00021F0030101432160FFF71CFF814641F25C
:100FB000883A0EE009688903EFE709688901ECE7E0
:100FC000FFF710FFA0EB0901514502D90320BDE84E
:100FD000F0872068696800F00C00B0EB810FEFD15A
:100FE000D8F80010404601F00F01B14207D9077050
:100FF000006800F00F00B04201D00120E7E7287838
:10100000400705D52068E96820F4E05008432060D7
:101010002878000706D52068296920F4604040EA56
:10102000C100206000F038F82168084AC1F30311BC
:10103000515CC8400649086006480068FFF7FAFEA0
:101040000020C4E7003C024008380240382800086D
:10105000040000200C0000200448054900680968CD
:10106000044AC1F38221515CC8407047040000204B
:101070000838024048280008044805490068096803
:10108000044AC1F34231515CC8407047040000205B
:101090000838024048280008154810B5006810F0CC
:1010A0000C02144813D04110042A0FD0082A0ED184
:1010B0000F4C241F2268236802F03F025B0207D511
:1010C0002068C0F38810A0FB010106E0084610BDAF
:1010D0002168C1F38811A1FB00010023FFF770F81C
:1010E0002168C1F30141491C4900B0FBF1F010BD7A
:1010F000083802400024F4002DE9F84F040076D0AF
:101100002078DFF838A3CE4DC00749D0DAF80010B8
:101110005046C1F38101012908D00068C0F3810065
:1011200002280AD1281D0068400206D528688003DD
:1011300036D560680028E2D032E06068B0F5803FC4
:1011400010D0B0F5A02F286810D020F4803028608F
:10115000286820F4802028606068A0B1FFF742FE74
:1011600006460CE0286840F48030F4E740F4802024
:101170002860F7E7FFF736FE801B642873D82868DD
:101180008003F7D50CE0FFF72DFE064605E000BF13
:10119000FFF728FE801B6428F0D828688003F7D466
:1011A0002078DFF8A08280074FF000093ED5DAF8FA
:1011B0000010504611F00C0F09D00068C0F38100F8
:1011C00002280BD19D48001F0068400206D4286801
:1011D000800715D5E068012809D111E0E068B8B1B1
:1011E0000120C8F80000FFF7FDFD064605E020E1FC
:1011F000FFF7F8FD801B0228C0D828688007F7D5C4
:101200002868216920F0F80040EAC10028600DE05C
:10121000C8F80090FFF7E6FD064604E0FFF7E2FDA0
:10122000801B02281FD828688007F7D42078000781
:1012300022D5824E844861696C3671B1012101600A
:10124000FFF7D0FD074604E0FFF7CCFDC01B0228E6
:1012500009D830688007F7D50EE0C0F80090FFF796
:10126000C1FD074605E082E0FFF7BCFDC01B022878
:101270007DD830688007F7D42078400768D5DFF83C
:10128000BCB100270BF1380BDBF80000C0000BD419
:10129000DBF8001041F08051CBF80010DBF80000C3
:1012A000012700F080500090684E3068C00510D4CF
:1012B000306840F480703060FFF794FD009005E0E6
:1012C000FFF790FD0099401A022850D83068C005F9
:1012D000F6D55A4EA068683601280FD00528306828
:1012E00010D020F001003060306820F00400306041
:1012F000A068B8B1FFF776FD00900FE0306840F0CD
:101300000100F4E740F004003060F7E7FFF76AFD02
:101310000099411A41F28830814266D830688007CE
:10132000F4D50EE0FFF75EFD009007E0FFF75AFDF1
:101330000099411A41F28830814256D830688007BE
:10134000F4D42FB1DBF8001021F08051CBF800105D
:10135000A069D0B3DAF800205146C2F38102022A14
:101360004AD00228484607D0C8F8600000E03CE0B8
:10137000FFF738FD04463BE04746C8F86000FFF73A
:1013800031FD064605E000BFFFF72CFD801B02285B
:101390002BD828688001F7D4D4E907010843A16A53
:1013A0002B4A490802EB0141626A41EA8211084373
:1013B00094F82C1040EA01612048001F01600120D0
:1013C0003866FFF70FFD044605E034E0FFF70AFD3D
:1013D000001B022809D828688001F7D52BE000BF40
:1013E000FFF700FD001B022802D90320BDE8F88F9B
:1013F00028688001F4D41EE00128F7D00868E2696B
:1014000000F48001914214D1226A00F03F01914220
:101410000FD147F6C071626A0140914209D1A26AB8
:1014200000F44031914204D1E16A00F070608842DA
:1014300001D00120DAE70020D8E700000838024098
:101440000038024000004742800E474200700040D2
:101450000000FFFF10B5401EB0F1807F01D30120D6
:1014600010BD4FF0E02460610F21601700F00EFD09
:101470000020A06107202061002010BD7047704748
:1014800070B590F83C20012A32D0012480F83C400D
:10149000022280F83D2003685A689D6822F0700699
:1014A0000A6832435A60134B02689A4214D0B2F170
:1014B000804F11D0104B9A420ED0104B9A420BD055
:1014C0000F4B9A4208D00F4B9A4205D00E4B9A42CE
:1014D00002D00E4B9A4204D1496825F0800319438B
:1014E000916080F83D40002180F83C10084670BDB6
:1014F000022070BD000001400004004000080040D0
:10150000000C004000040140004001400018004071
:1015100010B5040003D094F83D0010B107E001209D
:1015200010BD002084F83C00204600F00DF8022099
:1015300084F83D00211D206800F036FB012084F86E
:101540003D00002010BD000008B500680B4988422E
:1015500012D10B48016841F00201016000680022CD
:1015600000F00200009011461D20FFF7A9FCBDE825
:1015700008401D20FFF796BC08BD00000004004095
:10158000403802400168CA6842F00102CA6000683F
:10159000816801F00701062903D0016841F00101CB
:1015A00001600020704770B5044690F83C000128A7
:1015B00017D0012584F83C50022084F83D002068B3
:1015C000826822F0770222F47F4282600868502805
:1015D00030D00DDC20284DD005DC98B310283BD14D
:1015E00048E0022070BD302844D0402834D139E092
:1015F000602828D0702806D0B0F5805F2CD0B0F5D8
:10160000005F29D10AE0CB68D1E90121206800F010
:101610002FFB2068816841F0770109E0CB68D1E9B0
:101620000121206800F024FB2068816841F480419A
:10163000816011E0CA684968206800F02BFB5021E6
:10164000206807E016E0CA684968206800F033FBAC
:101650006021206800F016FB84F83D50002084F8DB
:101660003C0070BDCA684968206800F013FB402147
:101670002068EFE7226801461046EBE7704770B537
:101680000446006801694FF00005C943890715D475
:10169000C168C943890711D4E91E0161012020777F
:1016A000206880698007204602D0FFF7E7FF04E04A
:1016B00000F098F8204600F096F825772068016938
:1016C000C943490717D4C168C943490713D46FF008
:1016D00004010161022020772068806910F4407FB6
:1016E000204602D0FFF7CAFF04E000F07BF8204656
:1016F00000F079F8257720680169C943090716D4F5
:10170000C168C943090712D46FF0080101610420C0
:1017100020772068C0698007204602D0FFF7AEFF1F
:1017200004E000F05FF8204600F05DF825772068BF
:101730000169C943C90617D4C168C943C90613D48E
:101740006FF010010161082020772068C06910F453
:10175000407F204602D0FFF791FF04E000F042F8FE
:10176000204600F040F8257720680169C943C90781
:1017700008D1C168C943C90704D1891E0161204647
:1017800000F032F820680169C943090609D4C1682C
:10179000C943090605D46FF0800101612046FFF7B7
:1017A0006DFE20680169C943490609D4C168C9436F
:1017B000490605D46FF040010161204600F02AF887
:1017C00020680169C94389060BD4C168C9438906E9
:1017D00007D46FF0200101612046BDE87040FFF79B
:1017E0004EBE70BD704770470068084988420BD1F3
:1017F00007484188491C89B24180B1F57A7F03D3FB
:101800000021418001210170704700000004004068
:1018100000000020704770B5040004D094F839002F
:10182000002510B106E0012070BD84F83850204634
:1018300000F022F8242084F839002068C16821F4DF
:101840000051C160204600F049FA2068016921F486
:10185000904101612068416921F02A0141612068BD
:10186000C16841F40051C160E563202084F839006B
:1018700084F83A00002070BD10B586B004461421EB
:101880006846FEF7D5FC14492068884221D11348E8
:10189000016841F010010160006800F0100005903F
:1018A0000E481438016841F0010101600068694682
:1018B00000F0010005904FF4C060009002200190FC
:1018C0000120029003200390072004900448FFF7B2
:1018D000ADF906B010BD00000010014044380240D0
:1018E000000002402DE9F843044690F839001F46F5
:1018F00016460D46202850D1B5B1AEB194F8380047
:1019000001284AD0012084F838004FF00008C4F8BC
:101910003C80212084F83900FFF764FAA6848146D0
:10192000E68484F8388026E00120BDE8F883E08C66
:10193000401EE084A0684B46B0F5805F4FF0000287
:101940004FF080012046009703D000F05BFAE8B921
:101950000DE000F057FAC8B928882168C0F30800E4
:101960004860206908B16D1C05E0AD1C03E02168EA
:1019700015F8010B4860E08C0028D8D14B460022B6
:1019800040212046009700F03DFA08B10320CCE743
:10199000202084F839000020C7E70220C5E7FEE7D1
:1019A0007FB50024154800940194029412490394D1
:1019B00001604FF48031C0E901140461047680F8BD
:1019C00020400F49C0E90A140125C561C46080F8B0
:1019D00030404561FFF759F808B1FEF7ABFF092029
:1019E000CDE90005694602940448FEF7A5FF0028EA
:1019F00001D0FEF79FFF7FBD0022014018000020AC
:101A00000100000F114808B5016841F004010160B0
:101A1000016801F004010091016841F020010160BA
:101A2000016801F020010091016841F0800101602E
:101A3000016801F080010091016841F0010101603D
:101A4000006800F00100009008BD0000303802403E
:101A500010B586B0002417480094019402940394B2
:101A600004941349059401605421C0E901144FF412
:101A70007A71C0E903148461FFF74AFD08B1FEF7EB
:101A800059FF4FF48050009069460A48FFF78BFDDC
:101A900008B1FEF74FFF049404A906480594FFF728
:101AA000EFFC002801D0FEF745FF06B010BD000096
:101AB00000040040600000200C4810B50A49016095
:101AC0004FF4E1314160002181600C22C160C0E926
:101AD00004128161C161FFF79EFE002803D0BDE8BA
:101AE0001040FEF727BF10BD00100140A0000020ED
:101AF000FEE7704770477047FFF77AB930B593B08B
:101B000030216846FEF794FB14210CA8FEF790FBE9
:101B100019480025016841F080510160006800F01B
:101B2000805011901548016841F4804101600068BF
:101B3000022400F4804011900120009000040190E4
:101B40008001CDE9064008AA0420A82182E81300FC
:101B50000B906846FFF7D0FA0CA90F2081E83100FE
:101B60004FF4A0500F90E002109005210CA8FFF751
:101B7000D9F913B030BD0000403802400070004079
:101B80000548016841F47001016003494FF00060AD
:101B9000803908607047000088ED00E00148FFF7D9
:101BA0006EBD000060000020F0B50268254C264D97
:101BB000264E274F274B4FF0804CA04209D060455E
:101BC00007D0A84205D0B04203D0B84201D0984215
:101BD00004D122F0700E4A6842EA0E02A0421BD0E5
:101BE000604519D0A84217D0B04215D0B84213D0E2
:101BF000984211D0184DA8420ED0184DA8420BD0D3
:101C0000174DA84208D0174DA84205D0164DA8423E
:101C100002D0164DA84203D122F44075CA682A4367
:101C20004D6922F080022A4302608A68C2620A6813
:101C30008262A04201D0984201D109690163012169
:101C40004161F0BD00000140000400400008004078
:101C5000000C0040000401400040014000440140ED
:101C60000048014000180040001C004000200040D7
:101C700010B5846842EA032224F47F440A432243D5
:101C8000826010BD826822F070020A4342F00701B0
:101C90008160704710B5036A046A24F0010404628D
:101CA000846924F0F00444EA021423F00A020A438F
:101CB0008461026210BD10B5036A23F01003036251
:101CC0008369046A23F4704343EA023224F0A003D8
:101CD00043EA01118261016210BD00002DE9F0416B
:101CE000044600680169E26821F440511143016132
:101CF0002169A068E26908436169114308432168CA
:101D0000CA6849F20C639A430243CA602068416979
:101D1000A26921F4407111434161E06919276425EA
:101D20003226B0F5004F354A354920684FF000089B
:101D300006D0884201D0904236D1FFF79DF935E0B8
:101D4000884201D0904202D1FFF796F901E0FFF7F7
:101D500083F961684A18A0FB070148EB0803FEF706
:101D60002FFA0146B0FBF5F00201B1FBF5F06FF080
:101D70001803584301EB800006EBC000B0FBF5F000
:101D800000F0F80002EB4002B1FBF5F0584301EB24
:101D9000800006EBC000B0FBF5F000F00700216802
:101DA00010448860BDE8F081FFF756F961688B0F39
:101DB0008A00A0FB0701FEF703FA0146B0FBF5F02D
:101DC0006FF01802504301EB800006EB0010B0FBEF
:101DD000F5F000F0F002B1FBF5F002EB0012B1FB00
:101DE000F5F06FF01803584301EB800006EB00108C
:101DF000B0FBF5F000F00F00D1E700000014014047
:101E0000001001402DE9F041984617460E46044661
:101E1000069D1DE0681C1BD02DB1FEF7E3FFA0EB73
:101E20000800A84214D92068C16821F4D071C160AB
:101E30002068416921F001014161202084F83900C6
:101E400084F83A00002084F838000320BDE8F081CF
:101E50002068006836EA000004D00020B842D9D0DB
:101E60000020F3E70120F9E7FEE700000FB4054B7F
:101E700010B503A9044A029800F0EAF810BC5DF816
:101E800014FB000081270008140000200907090E38
:101E9000002804DB00F1E02080F80014704700F017
:101EA0000F0000F1E02080F8141D704702E008C820
:101EB000121F08C1002AFAD170477047002001E0C4
:101EC00001C1121F002AFBD1704700002DE9FF5FFE
:101ED00082B00021DDE90430020DDDF840B003439B
:101EE00018D044F61050A2F2FF3242431514119854
:101EF00001281FD0A5EB0B00401C5FEA000A4FF041
:101F000000064E4FDFF83891B046504615D5CAF15D
:101F1000000413E0119801244AA3012801D16FEABB
:101F20000B010298119AC0E90031C0E9024206B0E3
:101F3000BDE8F09FCBF10000DFE704460021404AF6
:101F4000491842EB0450CDE9001012E0E00707D039
:101F500032463B4640464946FEF775F9804689467B
:101F600032463B4610461946FEF76DF906460F46C7
:101F70006410002CEAD1DDE90401DDE90023BAF1A7
:101F8000000F06DAFEF75FF942464B46FEF75BF9B3
:101F900005E0FEF776FB42464B46FEF772FB044631
:101FA0000E460022284BFEF7F3FB03D84FF0FF301C
:101FB000014607E00022254B20463146FEF7BAFADB
:101FC000FEF7CEFB102409E0002C0ADB0A220023D6
:101FD000FEF7F6F8039B30321A55641E50EA0102F0
:101FE000F2D1641C039AC4F111031444119A012A1A
:101FF00003D0012208430DD10AE0084304D0002099
:102000004FF0110B119072E7A3EB0B056D1E0DE065
:102010005B4504DD4FF0000205F1010504E003DA41
:102020004FF00002A5F10105002AECD002981199A9
:10203000C0E90231C0E9004579E700000000144022
:102040000000F03F300000000000F0430000E03FDF
:102050002DE9FF4F95B09B468946064600250FE2C5
:10206000252877D100242746F84A0121059400E06D
:10207000044316F8013F203B01FA03F01042F7D168
:1020800030782A2811D06FF02F033078A0F1300279
:10209000092A16D8059A44F0020402EB820203EBE7
:1020A00042021044761C0590EFE759F8042B059284
:1020B000002A03DA504244F40054059044F002042C
:1020C000761C30782E2816D116F8010F44F004043F
:1020D0002A280DD06FF02F023078A0F13003092BA1
:1020E00009D807EB870302EB4303C718761CF3E715
:1020F00059F8047B761C30786C280FD006DC4C280D
:1021000017D068280DD06A2814D104E0742810D0A4
:102110007A280FD10DE044F400140AE044F480144E
:1021200001E044F440147278824202D104F5801434
:10213000761C761C307866280BD013DC582877D0B4
:1021400009DC002875D04528F6D04628F4D0472869
:102150001AD19DE118E0632835D0642879D065282C
:1021600012D195E1702873D008DC6728F1D0692876
:102170006FD06E280DD06F2806D1B5E073282CD013
:10218000752875D0782874D05A46179990476D1CD9
:1021900075E1C4F30250022809D003280DD0D9F804
:1021A000001004280DD00D6009F1040967E1D9F889
:1021B0000010EA17C1E90052F6E7D9F800100D80C7
:1021C000F2E70D70F0E719F8041B8DF800100020FD
:1021D0008DF80100EA46012003E059F804AB4FF006
:1021E000FF3061074FF0000102D40DE008F101015A
:1021F0008846B9420FDA8045F8DB1AF80810002942
:10220000F4D108E008F1010188468142FADB1AF8AE
:1022100008100029F6D105985B46A0EB0807214677
:102220003846179A00F094FA284400EB080507E0B6
:102230004DE029E10DE01AF8010B5A461799904735
:10224000B8F10108F7D25B4621463846179A13E1E8
:1022500042E00A220092C4F302524FF0000A022A1E
:1022600008D059F804CB032A4FEAEC710AD00DE0EC
:1022700029E02AE009F1070121F00702F2E802C192
:10228000914609E00FFA8CFC4FEAEC71042A03D165
:102290004FFA8CFC4FEAEC71002907DA0A4600215C
:1022A000DCF1000C61EB02012D2202E0220504D5D5
:1022B0002B228DF80420012203E0E20701D0202226
:1022C000F7E7904659E00A2102E010220DE01021C4
:1022D0004FF0000A00910BE010224FF0000A44F08A
:1022E00004040827009203E008224FF0000A00923D
:1022F000C4F30252022A05D059F804CB0021032A64
:1023000008D009E009F1070121F00702F2E802C153
:10231000914605E01FFA8CFC042A01D10CF0FF0C59
:102320004FF00008220728D5702806D0009B83F0C4
:10233000100353EA0A0305D00EE040228DF8042072
:10234000012208E05CEA010206D030228DF8042068
:102350008DF8050002229046009B83F0080353EAA3
:102360000A030AD15CEA010201D1620705D53022D5
:102370008DF804204FF001087F1E582804D034A0A7
:1023800003900EA802900DE036A0F9E75346604690
:10239000009AFDF715FF84460398825C0298401E60
:1023A000029002705CEA0100F0D1029806A9081AB6
:1023B00000F1200A600702D524F4803400E00127F0
:1023C000574502DDA7EB0A0000E0002000EB0A0100
:1023D000009005984144401A0590E00306D45B46FE
:1023E0002146179A059800F0B3F90544002706E046
:1023F00001A85A46C05D179990476D1C7F1C474540
:10240000F6DBE0030CD55B462146179A059800F0F1
:102410009FF9054404E030205A46179990476D1CF7
:102420000099481E00900029F5DC08E00298029906
:102430005A460078491C0291179990476D1CBAF1D1
:102440000001AAF1010AF1DC65E1000009280100A0
:10245000303132333435363738396162636465661A
:1024600000000000303132333435363738394142DC
:10247000434445460000000000F058F90544761C2E
:10248000307800287FF4ECAD19B02846BDE8F08F15
:10249000620700D4062709F1070222F0070CFCE8C6
:1024A0000223E14603F000485FEA080C02D00FF275
:1024B000702C0DE05FEA045C02D50FF2682C07E097
:1024C0005FEAC47C02D00FF2602C01E0AFF2700C26
:1024D0004FF0FF3823F00043CDF850C065280CD0F2
:1024E00006DC452809D046281DD047283DD13DE0CF
:1024F000662818D067287ED138E00021112F01DB33
:10250000112000E0781CCDE9000106A90EA8FFF714
:10251000DDFCDDE90F010E9A03910021009207F125
:10252000010A04914DE04FF000400097CDE9011001
:1025300006A90EA8FFF7CAFCDDE90F0203920E9B65
:1025400011990022DDF80CA00093049211B9791CB6
:1025500000EB010AB7EB0A0004D4C0F1FF3007F129
:10256000010A0490AAEB0700019044E0012F00DA71
:1025700001270021112F01DD112000E03846CDE9AF
:10258000000106A90EA8FFF7A1FCDDE90F010E9AD4
:102590000391002104910092BA4621070CD40399BB
:1025A000514500DA8A46BAF1010F05DD009AAAF119
:1025B0000101515C302908D0B84202DA10F1040F51
:1025C00006DA0121CDE9011015E0AAF10101E9E7E0
:1025D000002805DC049901440491AAEB000102E003
:1025E000411C514500DD8A460499401A401C019067
:1025F0004FF000400290200704D40198504501DBC1
:10260000CDF8048000208DF84F0002980DF14F079F
:10261000B0F1004F25D02B200E9002984FF0020809
:1026200000280CDA404202902D200E9007E00A218B
:102630000298FDF7B6FE3031029007F8011DB8F19F
:102640000001A8F10108F2DC02980028EFD1791E00
:102650000E980870307800F0200040F0450007F830
:10266000020D12A8C01B00F107081498007800B1F1
:10267000012000EB0A01019801EBE071059841444B
:10268000401A401E0590E00306D45B462146179A87
:10269000059800F05DF805441498007818B15A4682
:1026A000179990476D1CE00324D55B462146179A85
:1026B000059800F04DF805441CE00498002807DB5D
:1026C000DDE90301884203DD0098405C179901E0D1
:1026D000179930205A469047049805F10105401C8F
:1026E00004900198401E019004D12E205A4617995B
:1026F00090476D1CBAF10001AAF1010ADDDC05E08A
:1027000017F8010B5A46179990476D1CB8F1000154
:10271000A8F10108F4DC5B462146179A0598ABE660
:102720002D0000002B000000200000002DE9F041EA
:10273000044600251E461746880404D405E03946A1
:102740002020B0476D1C641EF9D52846BDE8F081F5
:102750002DE9F041044600251E469046C80301D5E8
:10276000302700E02027880404D505E0414638469C
:10277000B0476D1C641EF9D52846BDE8F081000005
:1027800038B504468DF8000002230122694602484C
:10279000FFF7A8F8204638BDA000002010B511486A
:1027A000FEF7CEF90F48FEF76DF980B2FDF7BDFDDB
:1027B0009FED0D1B53EC112BFDF745FD9FED0C1B01
:1027C00053EC112BFDF73FFDFDF7CFFDFDF7BAFDF3
:1027D00041EC100BBDE8104053EC102B06A0FFF7A6
:1027E00045BB0000180000206666666666660A4003
:1027F000000000000000303F25660D0A00000000C8
:10280000FEF7FEFAFFF77AF9FFF7FCF8FFF7C8F8D2
:10281000FFF71EF9FFF750F90548FEF7B3FE054C28
:10282000002520780128FCD12570FFF7B7FFF8E7D5
:1028300060000020000000200000000000000000F8
:102840000102030406070809000000000102030456
:10285000702800080000002018000000AC1E0008CE
:102860008828000818000020C8040000BC1E0008CA
:10287000000000000024F40001000000100000002F
:08288000000000000000000050
:040000050800018965
:00000001FF
