:020000040800F2
:10000000780400209D01000877140008FB12000806
:1000100075140008D50200087119000800000000DE
:10002000000000000000000000000000691500084A
:10003000D702000800000000791400086B150008C2
:10004000B7010008B7010008B7010008B7010008B0
:10005000B7010008B7010008B7010008B7010008A0
:10006000B7010008B7010008B7010008B701000890
:10007000B7010008B7010008B7010008B701000880
:10008000B7010008B7010008B7010008B701000870
:10009000B7010008B7010008B7010008B701000860
:1000A000B7010008B7010008B7010008B701000850
:1000B000B7010008B7010008B7010008B701000840
:1000C000B7010008B7010008B7010008B701000830
:1000D000B7010008B7010008B7010008B701000820
:1000E000B70100087D140008B7010008B701000837
:1000F000B7010008B7010008B7010008B701000800
:10010000B7010008B7010008B7010008B7010008EF
:10011000B7010008B7010008B7010008B7010008DF
:10012000B7010008B7010008B7010008B7010008CF
:10013000B7010008B7010008B7010008B7010008BF
:10014000B7010008B7010008B7010008B7010008AF
:10015000B7010008B7010008B7010008B70100089F
:10016000B7010008B7010008B7010008B70100088F
:10017000B7010008B7010008B7010008000000003F
:10018000B7010008B7010008DFF80CD000F090F8C4
:1001900000480047411B00087804002006488047BB
:1001A00006480047FEE7FEE7FEE7FEE7FEE7FEE75C
:1001B000FEE7FEE7FEE7FEE70D16000889010008EE
:1001C0002DE9F05F0546002092469B46884606468C
:1001D000814640241BE0284641464746224600F01F
:1001E00057F853465A46C01A914110D31146184643
:1001F000224600F03EF82D1A67EB01084F462246D2
:100200000120002100F035F817EB00094E41201EB7
:10021000A4F10104DFDC484631462A464346BDE8E6
:10022000F09FD2B201E000F8012B491EFBD27047CB
:100230000022F6E710B513460A4604461946FFF7B2
:10024000F0FF204610BD30B50B46014600202022AD
:10025000012409E021FA02F59D4205D303FA02F5D3
:10026000491B04FA02F52844151EA2F10102F1DC33
:1002700030BD202A04DB203A00FA02F1002070474A
:100280009140C2F1200320FA03F3194390407047D4
:10029000202A04DB203A21FA02F00021704721FADB
:1002A00002F3D040C2F12002914008431946704742
:1002B000064C074D06E0E06840F0010394E80700B3
:1002C00098471034AC42F6D3FFF762FF741B000866
:1002D000941B0008FEE77047704700002DE9F84FB7
:1002E000DFF87CB100224FF001084FF0030A4FF015
:1002F0000F090BF1040E00BF0B6808FA02F423404B
:10030000A3426ED14D68022D01D0122D0ED1D50819
:1003100000EB850CDCF820505607F70E09FA07F6BB
:10032000B5430E69BE402E43CCF8206006685500E8
:100330000F790AFA05FC07F0030726EA0C06AF401E
:10034000374307604E68012E05D0022E03D0112ED0
:1003500001D0122E0ED18668CF6826EA0C06AF4077
:10036000374387604668A6430C79C4F30014944071
:1003700034434460C6688C6826EA0C06AC403443BB
:10038000C4604C68E40065D5364C256845F480456A
:100390002560246822F0030504F480440094324C64
:1003A0002E19D6F8084895072F0F09FA07F5AC4320
:1003B0002E4DA84201D1002524E02D4DA84201D1A7
:1003C00001251FE02B4DA84201D102251AE02A4D3C
:1003D000A84201D1032515E0284DA84202D10425E9
:1003E00010E037E0264DA84201D105250AE0254D51
:1003F000A84201D1062505E0234DA84201D10725D9
:1004000000E00825BD402543C6F80858DBF8004049
:100410005D464E689C43F60300D51C432C60DEF815
:10042000004075464E689C43B60300D51C432C60C3
:100430000B4D08352C684E689C43F60200D51C43D2
:100440002C60074D0C352C684E689C43B60200D5D5
:100450001C432C60521C102AFFF44EAFBDE8F88FED
:10046000003C01404438024000300140000002409E
:100470000004024000080240000C0240001002404C
:100480000014024000180240001C02400AB18161C1
:1004900070470904FBE700000148806870470000CE
:1004A000040000200248816802781144816070478E
:1004B000040000200B4810B5016841F40071016090
:1004C000016841F480610160016841F4807101605C
:1004D000032000F06FF8002000F006F800F024F888
:1004E000002010BD003C024070B50D4D04464FF495
:1004F0007A712878B1FBF0F00A490968B1FBF0F095
:1005000000F023FE48B9102C07D200222146501ECD
:1005100000F030F800206C6070BD012070BD00005C
:1005200004000020000000200A4808B5016841F4DA
:1005300080410160006800F4804000900548001F81
:10054000016841F080510160006800F08050009027
:1005500008BD000044380240002809DB00F01F02FB
:10056000012191404009800000F1E020C0F8001115
:1005700070470000F0B40E4B1B680C46C3F3022317
:10058000C3F10705042D00D90425191D072901D23F
:10059000002300E0DB1E012606FA05F1491E21407A
:1005A00099409E40761E16403143F0BC01F0F2B9EE
:1005B0000CED00E0064900F0070208684FF6FF0363
:1005C000184040EA0220034A1043086070470000C8
:1005D0000CED00E00000FA052DE9F843054600683F
:1005E0004FF00109C1074FF0000601D1400727D5A0
:1005F000DFF80C81C8F86860FFF74EFF0746414CF2
:1006000005E000BFFFF748FFC01B022857D820684D
:100610000001F7D468688101287A41EA00703949FD
:1006200084310860C8F86890FFF736FF074604E099
:10063000FFF732FFC01B022841D820680001F7D520
:100640002878800752D52F484030016841F080510A
:10065000016000682C4C00F080500090206840F44D
:1006600080702060FFF718FF074604E0FFF714FFD3
:10067000C01B022823D82068C005F7D5214C703450
:10068000206810F4407020D0A98901F440718142A3
:100690001BD020681D4920F44070C1F800900E6006
:1006A00020602068C00710D0FFF7F6FE064641F232
:1006B000883707E0FFF7F0FE801BB84202D903201D
:1006C000BDE8F88320688007F4D5E9680D48C1F3D8
:1006D00001220830032A0BD0016821F4F8110160CF
:1006E0002068A989C1F30B01084320600020E7E7D7
:1006F0000268074B22F4F81219400A430260EFE740
:10070000000047420038024000700040400E47425F
:10071000FFFCFF0F2DE9F0470E46050065D0DFF81E
:100720001481D8F80000F7B200F00F00B04207D2F1
:1007300088F80070D8F8000000F00F00B04254D1E3
:1007400028683D4C810712D5400703D5206840F446
:10075000E05020602878000703D5206840F460400E
:1007600020602068A96820F0F00008432060287805
:10077000C0072DD0304968680839012812D00228F6
:1007800013D0032811D00968890700292DDA2168C0
:1007900021F0030101432160FFF77EFE814641F213
:1007A000883A0EE009688903EFE709688901ECE7F8
:1007B000FFF772FEA0EB0901514502D90320BDE805
:1007C000F0872068696800F00C00B0EB810FEFD172
:1007D000D8F80010404601F00F01B14207D9077068
:1007E000006800F00F00B04201D00120E7E7287850
:1007F000400705D52068E96820F4E05008432060F0
:100800002878000706D52068296920F4604040EA6E
:10081000C100206000F036F82168084AC1F30311D6
:10082000515CC840064908600020FFF75DFE0020CB
:10083000C5E70000003C0240083802405A1B00088F
:10084000000000200448054900680968044AC1F313
:100850008221515CC84070470000002008380240E7
:100860006A1B00080448054900680968044AC1F386
:100870004231515CC84070470000002008380240F7
:100880006A1B0008154810B5006810F00C021448E7
:1008900013D04110042A0FD0082A0ED10F4C241F68
:1008A0002268236802F03F025B0207D52068C0F38C
:1008B0008810A0FB010106E0084610BD2168C1F3C5
:1008C0008811A1FB00010023FFF77AFC2168C1F326
:1008D0000141491C4900B0FBF1F010BD083802404D
:1008E0000024F4002DE9F84F050076D02878DFF8D1
:1008F000F8B2BE4CC00749D0DBF800105846C1F32F
:100900008101012908D00068C0F3810002280AD1C2
:10091000201D0068400206D52068800336D568682F
:100920000028E2D032E06868B0F5803F10D0B0F522
:10093000A02F206810D020F480302060206820F4A0
:10094000802020606868A0B1FFF7A6FD06460CE095
:10095000206840F48030F4E740F480202060F7E71E
:10096000FFF79AFD801B642873D820688003F7D5B1
:100970000CE0FFF791FD064605E000BFFFF78CFD98
:10098000801B6428F0D820688003F7D42878DFF82B
:10099000608280074FF000093ED5DBF80010584612
:1009A00011F00C0F09D00068C0F3810002280BD1B0
:1009B0008D48001F0068400206D42068800715D5C6
:1009C000E868012809D111E0E868B8B10120C8F849
:1009D0000000FFF761FD064605E002E1FFF75CFD60
:1009E000801B0228C0D820688007F7D520682969B5
:1009F00020F0F80040EAC10020600DE0C8F8009047
:100A0000FFF74AFD064604E0FFF746FD801B02287B
:100A10001FD820688007F7D42878000722D5724EA7
:100A2000744869696C3671B101210160FFF734FDCA
:100A3000074604E0FFF730FDC01B022809D83068E4
:100A40008007F7D50EE0C0F80090FFF725FD0746B8
:100A500005E083E0FFF720FDC01B02287ED8306848
:100A60008007F7D42878400768D5DFF87CA10027F5
:100A70000AF1380ADAF80000C0000BD4DAF80010E6
:100A800041F08051CAF80010DAF80000012700F0A8
:100A900080500090584E3068C00510D4306840F443
:100AA00080703060FFF7F8FC009005E0FFF7F4FC81
:100AB0000099401A022851D83068C005F6D54A4E30
:100AC000A868683601280FD00528306810D020F0BB
:100AD00001003060306820F004003060A868B8B1D0
:100AE000FFF7DAFC00900FE0306840F00100F4E717
:100AF00040F004003060F7E7FFF7CEFC0099411AA0
:100B000041F28830814264D830688007F4D50EE025
:100B1000FFF7C2FC009007E0FFF7BEFC0099411A06
:100B200041F28830814254D830688007F4D42FB124
:100B3000DAF8001021F08051CAF80010A869C0B39B
:100B4000DBF80010C1F3810102294AD0022848468F
:100B500007D0C8F86000FFF79FFC00E039E00546C9
:100B60003AE04746C8F86000FFF796FC064604E006
:100B7000FFF792FC801B02282BD820688001F7D455
:100B8000D5E907010843A96A1C4A490802EB01415B
:100B90006A6A41EA8211084395F82C1040EA016123
:100BA0001148001F016001203866FFF775FC0546FB
:100BB00005E014E0FFF770FC401B022809D820680C
:100BC0008001F7D50BE000BFFFF766FC401B022851
:100BD00002D90320BDE8F88F20688001F4D40020FA
:100BE000F8E70120F6E7000008380240003802402C
:100BF00000004742800E4742007000400000FFFFA7
:100C00007047000000224FF400710148FFF73EBC1E
:100C10000014024010B504460068C168C9050CD52F
:100C20008068C00409D52046FFF7ECFF2068C16842
:100C300001F0800161F4C071C1602068C16889055C
:100C40000CD58068800409D52046FFF7D9FF2068BD
:100C5000C16801F0800161F42071C16003494FF463
:100C6000003008600120607710BD0000143C014096
:100C700010B500680B4641680D480140080CD8705B
:100C8000C1F304245C7001F03F049C70C1F3423155
:100C9000197052B900F0F8FBD870587800F0F4FBE6
:100CA0005870987800F0F0FB9870002010BD00009C
:100CB0003FFFFF0010B50B460168896A5960016863
:100CC0000969C1F30E019960006801680E4801408E
:100CD000C1F305401870C1F306245C7001F07F0475
:100CE0009C70402404EA1141D97052B900F0CCFB49
:100CF0001870587800F0C8FB5870987800F0C4FB62
:100D00009870002010BD00007F7F7F0070B5040048
:100D100002D0607F10B106E0012070BD0020207776
:100D2000204600F049F8022060772168CA20486216
:100D3000216853204862204600F0BAFBFF250426B4
:100D400018BB206881681B4A11408160216888684F
:100D500062681043D4E904231A4310438860216871
:100D6000E068086120680169228941EA0241016165
:100D70002068C16821F08001C16020688068800619
:100D800007D4204600F0C6F918B12068456266779E
:100D9000C2E72068016C21F4802101642068016CA5
:100DA000A269114301642068456201206077002038
:100DB00070BD0000BFFF8FFF10B500680849884272
:100DC0000CD1084901200860002211462920FFF7B4
:100DD000D1FBBDE810402920FFF7BEBB10BD0000CD
:100DE000002800403C0E4742F8B503465A480C46DE
:100DF0004FF4FA410068B0FBF1F04911484300900C
:100E0000187F012863D001261E77022058771868C2
:100E10000025002A80684FEA40605AD0002800DB95
:100E2000E570A0782278E77840EA02406278E169CC
:100E3000120242EA0742104394F8202040EA02607E
:100E400008436169A269084361681F681143CA22A7
:100E50007A621F6853227A62626AFF27B2F5807F46
:100E60001A684FF0030C94684ED024F40074946018
:100E70001A68D46804F0800464F42074D4601A689A
:100E8000009CB4F1010ECDF800E05ED3D468A40755
:100E9000F6D51062186881641868816841F40071A1
:100EA00081601868816841F4005181602B480168B5
:100EB00041F40031016029480830016841F40031F3
:100EC0000160186847625E771D770020F8BD022038
:100ED000F8BD002800DBE570207800F0DEFA02049F
:100EE000607800F0DAFA42EA0022A07800F0D5FA41
:100EF0000243E07842EA004294F8200000F0CDFA84
:100F000042EA0060E1699BE724F4807494601A6807
:100F1000D46804F0800464F4C074D4601A68009C3F
:100F2000B4F1010ECDF800E00FD3D468E407F6D099
:100F3000D061186841641868816841F480718160EB
:100F40001868816841F48051AFE7576283F81DC08B
:100F50001D770320F8BD000000000020003C014088
:100F60002DE9F0470446007F0B4601281FD04FF0C3
:100F7000010984F81C9002206077DAB19878D9785A
:100F800040EA014558781978000240EA41300543AB
:100F90002168CA204862216853204862204600F038
:100FA00087FA0026FF274FF0040860BB1AE00220F2
:100FB000BDE8F0875878C10603D500F0EF000A308D
:100FC0005870D87800F069FA0204587800F065FA91
:100FD00042EA0022987800F060FA0243187842EA68
:100FE0004035D5E70F480540206845602068C16856
:100FF00021F08001C1602068806880060AD4204604
:1010000000F088F830B12068476284F81D802677A8
:101010000120CDE72068476284F81D9026770020E4
:10102000C6E700003FFFFF002DE9F0470446007FC0
:101030000D46012827D04FF0010A84F81CA0022099
:1010400060772068002680684FEA4060F2B100288F
:1010500000DBEE70A878297840EA01476878E978E3
:10106000000240EA014007432168CA204862216823
:1010700053204862204600F01BFA4FF0FF084FF063
:101080000409A0BB16E00220BDE8F087002800DBC1
:10109000EE70287800F001FA0204687800F0FDF99B
:1010A00042EA0022A87800F0F8F90243E87842EA20
:1010B0000047D9E716480740206807602068816824
:1010C00021F480218160D5E90301084321688A6801
:1010D000104388602068C16821F08001C1602068E9
:1010E000806880060BD4204600F014F838B12168DF
:1010F000C1F8248084F81D9026770120C4E7216878
:10110000C1F8248084F81DA026770020BCE70000E9
:101110007F7F7F0070B504460068C16821F0A001A0
:10112000C160FFF7B9F905464FF47A7607E000BFD2
:10113000FFF7B2F9401BB04201D9032070BD20680F
:10114000C0688006F4D5002070BD10B5401EB0F117
:10115000807F01D3012010BD4FF0E02460610F219A
:10116000601700F017FC0020A0610720206100201C
:1011700010BD70B5040004D094F83900002510B1FA
:1011800006E0012070BD84F83850204600F022F8B7
:10119000242084F839002068C16821F40051C1601E
:1011A000204600F05DFA2068016921F49041016158
:1011B0002068416921F02A0141612068C16841F439
:1011C0000051C160E563202084F8390084F83A00BA
:1011D000002070BD10B586B0044614216846FFF7A4
:1011E00027F814492068884221D11348016841F04A
:1011F00010010160006800F0100005900E481438DE
:10120000016841F0010101600068694600F00100D9
:1012100005904FF4C06000900220019001200290E0
:1012200003200390072004900448FFF757F806B006
:1012300010BD000000100140443802400000024090
:101240002DE9F843044690F839001F4616460D462E
:10125000202850D1A5B19EB194F8380001284AD079
:10126000012084F838004FF00008C4F83C802120A9
:1012700084F83900FFF710F9A6848146E68426E059
:101280000120BDE8F883E08C401EE084A0684B4656
:10129000B0F5805F4FF000024FF0800120460097CC
:1012A00003D000F033FBE8B90DE000F02FFBC8B924
:1012B00028882168C0F308004860206908B16D1CC7
:1012C00005E0AD1C03E0216815F8010B4860E08CD7
:1012D0000028D8D14B46002240212046009700F03C
:1012E00015FB08B10320CCE7202084F8390084F8EE
:1012F00038800020C5E70220C3E7FEE770B586B05E
:1013000014216846FEF794FF19480024016841F053
:1013100004010160016801F004010591016841F0D8
:1013200020010160016801F020010591016841F090
:1013300080010160016801F080010591016841F0C0
:10134000010101600068012200F00100094E550210
:10135000059029463046FFF799F801200095CDE920
:101360000104694630460394FEF7B8FF06B070BD2D
:10137000303802400014024030B591B014210AA860
:10138000FEF756FF0024282168460F94FEF750FF11
:1013900029482849C0E900147F218160FF21C0E964
:1013A000031444618461FFF7B1FC08B1FEF794FFB8
:1013B00016208DF828008DF829408DF82A400D94CC
:1013C00001220AA91C480E94FFF72EFE08B1FEF771
:1013D00083FF06208DF83C0001258DF83D50092043
:1013E0008DF83E0015208DF83F002A460FA91248BF
:1013F000FFF7B6FD08B1FEF76FFF8DF800408DF8DE
:10140000014004944FF480708DF8024001940394DD
:1014100009900594069407948DF82050012269469E
:101420000548FFF7E1FC002801D0FEF755FF11B099
:1014300030BD000000280040140000200C4810B50A
:101440000A4901604FF4E1314160002181600C22C2
:10145000C160C0E904128161C161FFF78AFE002802
:1014600003D0BDE81040FEF737BF10BD00100140AB
:1014700034000020FEE77047704700000148FFF786
:10148000C9BB000014000020010901EB810100F03C
:101490000F0000EB4100C0B27047002102E00A38A3
:1014A000C0B2491C0A28FAD2090740EA1160704705
:1014B00070B504460068C168490614D44FF0FF3186
:1014C000C160FEF7E9FF05464FF47A7607E000BFFA
:1014D000FEF7E2FF401BB04201D9032070BD206837
:1014E000C0684006F4D5002070BD000000B587B08C
:1014F000012201A90F48FFF7DDFB012206A90D48D3
:10150000FFF7B6FB9DF8180000909DF81A309DF883
:1015100019209DF81B1008A000F02CFA9DF8063049
:101520009DF805209DF804100AA000F023FA07B0EA
:1015300000BD000014000020B5B1C7B0C8D5C6DAA0
:101540003A2564C4EA2564D4C22564C8D5D6DC250E
:10155000640D0A00B5B1C7B0CAB1BCE43A25643A1B
:1015600025643A25640D0A007047FEF79BBF000012
:1015700030B597B030216846FEF75AFE14210CA80A
:10158000FEF756FE00251F481195129513951495E8
:10159000016841F080510160006800F080501590B2
:1015A0001948016841F4804101600068022400F498
:1015B00080401590092000904FF480300190012068
:1015C000CDE905048005079008AA0420A82182E837
:1015D00013000B906846FFF785F90CA90F2081E8EE
:1015E00031004FF4A0500F90E002109005210CA89C
:1015F000FFF790F820021490119411A8FEF7ECFF69
:1016000017B030BD403802400070004010480168FB
:1016100041F4700101600F48016841F0010101606F
:101620000C4A00210832116002680B4B1A4002601C
:10163000031D0A4A1A60026822F4802202600548EB
:101640000C3001600249580680390860704700007C
:1016500088ED00E000380240FFFFF6FE1030002465
:101660002DE9F041044600680169E26821F4405127
:10167000114301612169A068E2690843616911436E
:1016800022680843D16849F20C6399430143D16051
:1016900020684169A26921F4407111434161E26906
:1016A0006425B2F5004F9748974922684FF03208F9
:1016B0003FD08A4201D082427CD1FFF7D3F800EBC1
:1016C000C00101EB001061688900B0FBF1F6FFF783
:1016D000C9F800EBC00101EB001061688900B0FBA4
:1016E000F1F0B0FBF5F06FF01801484306EB800114
:1016F00008EB0110B0FBF5F000F0F006FFF7B2F8D0
:1017000000EBC00101EB001061688900B0FBF1F053
:10171000B0FBF5F006EB0016FFF7A4F800EBC001F4
:1017200001EB001061688900B0FBF1F7FFF79AF850
:10173000D2E08A4201D082423DD1FFF793F800EB1C
:10174000C00101EB001061684900B0FBF1F0B0FB93
:10175000F5F00601FFF786F800EBC00101EB001081
:1017600061684900B0FBF1F7FFF77CF800EBC001BE
:1017700001EB001061684900B0FBF1F0B0FBF5F03F
:101780006FF01801484307EB800108EBC100B0FB84
:10179000F5F000F0F80006EB4006FFF763F800EB09
:1017A000C00101EB001061684900B0FBF1F7FFF7E1
:1017B00059F83CE055E0FFF745F800EBC00101EBBC
:1017C000001061684900B0FBF1F0B0FBF5F00601D4
:1017D000FFF738F800EBC00101EB00106168490029
:1017E000B0FBF1F7FFF72EF800EBC00101EB0010A2
:1017F00061684900B0FBF1F0B0FBF5F06FF0180143
:10180000484307EB800108EBC100B0FBF5F000F0A6
:10181000F80006EB4006FFF715F800EBC00101EBFE
:10182000001061684900B0FBF1F7FFF70BF800EB1F
:10183000C00101EB001061684900B0FBF1F0B0FBA2
:10184000F5F06FF01801484307EB800108EBC10089
:10185000B0FBF5F000F00700216830448860BDE877
:10186000F081FEF7EFFF00EBC00101EB00106168B3
:101870008900B0FBF1F6FEF7E5FF00EBC00101EBDC
:10188000001061688900B0FBF1F0B0FBF5F06FF07B
:101890001801484306EB800108EB0110B0FBF5F09E
:1018A00000F0F006FEF7CEFF00EBC00101EB0010E8
:1018B00061688900B0FBF1F0B0FBF5F006EB0016B3
:1018C000FEF7C0FF00EBC00101EB0010616889006A
:1018D000B0FBF1F7FEF7B6FF00EBC00101EB001023
:1018E00061688900B0FBF1F0B0FBF5F06FF0180112
:1018F000484307EB800108EB0110B0FBF5F000F066
:101900000F00A9E700140140001001402DE9F0414B
:10191000984617460E460446069D1DE0681C1BD0DF
:101920002DB1FEF7B9FDA0EB0800A84214D920683C
:10193000C16821F4D071C1602068416921F00101C2
:101940004161202084F8390084F83A00002084F8AE
:1019500038000320BDE8F0812068006836EA000006
:1019600004D00020B842D9D00020F3E70120F9E7E5
:10197000FEE700000FB4054B10B503A9044A029816
:1019800000F028F810BC5DF814FB0000291B0008CB
:10199000100000200907090E002804DB00F1E020F8
:1019A00080F80014704700F00F0000F1E02080F88C
:1019B000141D704702E008C8121F08C1002AFAD19E
:1019C00070477047002001E001C1121F002AFBD1BF
:1019D000704700002DE9FF4F89B09B460446002563
:1019E00006E025280BD05A460B999047641C6D1CC5
:1019F00020780028F5D10DB02846BDE8F08F0027EB
:101A0000B8460122474900E0074314F8013F203B54
:101A100002FA03F00842F7D120782E2819D114F8E1
:101A2000010F47F004072A280ED06FF02F0220780C
:101A3000A0F1300109290CD808EB880102EB410123
:101A400000EB0108641CF2E70A98641C50F8048B50
:101A50000A9020780028CED0642808D0692806D0C3
:101A600075281ED05A460B9990476D1C58E00A996C
:101A70004FF00A0901C90A91002802DA40422D21DB
:101A800002E0390504D52B218DF82010012103E057
:101A9000F90704D02021F7E78A4608AE0DE00021BF
:101AA000FAE70A994FF00A0901C90A91F7E749468E
:101AB000FEF7C9FB303106F8011D0028F7D1ADEB68
:101AC000060000F12009780701D44FF00108C8454D
:101AD00002DDA8EB090000E000208046002706E0B8
:101AE00008A85A46C05D0B9990476D1C7F1C57454E
:101AF000F6DB04E030205A460B9990476D1CB8F194
:101B00000001A8F10108F5DC05E016F8010B5A46C2
:101B10000B9990476D1CB9F10001A9F10109F4DCA2
:101B2000641C65E70928010013B54FF6FF73012215
:101B300069460248FFF784FB00981CBD3400002072
:101B4000FEF7B8FCFFF714FDFFF7D8FBFFF714FC16
:101B5000FFF774FCFFF7CAFCFCE700000000000080
:101B6000000001020304060708090000000001024A
:101B700003040000941B0008000000201400000073
:101B8000B4190008A81B0008140000206404000019
:101B9000C41900080024F400010000001000000037
:081BA00000000000000000003D
:040000050800018965
:00000001FF
