:020000040800F2
:10000000D80400209D010008F31900086B140008B3
:10001000F1190008AF030008291C000800000000C7
:10002000000000000000000000000000F7190008B8
:10003000B103000800000000F5190008F9190008D4
:10004000B7010008B7010008B7010008B7010008B0
:10005000B7010008B7010008B7010008B7010008A0
:10006000B7010008B7010008B7010008B701000890
:10007000B7010008B7010008B7010008B701000880
:10008000B7010008B7010008B7010008B701000870
:10009000B7010008B7010008B7010008B701000860
:1000A000B7010008B7010008B7010008B701000850
:1000B000B7010008B7010008B7010008B701000840
:1000C000B7010008B7010008B7010008B701000830
:1000D000B7010008B7010008B7010008B701000820
:1000E000B7010008B7010008B7010008B701000810
:1000F000B7010008B7010008B7010008B701000800
:10010000B7010008B7010008B7010008B7010008EF
:10011000B7010008B7010008B7010008B7010008DF
:10012000B7010008B7010008B7010008B7010008CF
:10013000B7010008B7010008B7010008B7010008BF
:10014000B7010008B7010008B7010008B7010008AF
:10015000B7010008B7010008B7010008B70100089F
:10016000B7010008B7010008B7010008B70100088F
:10017000B7010008B7010008B7010008000000003F
:10018000B7010008B7010008DFF80CD000F07AF8DA
:1001900000480047691C0008D80400200648804732
:1001A00006480047FEE7FEE7FEE7FEE7FEE7FEE75C
:1001B000FEE7FEE7FEE7FEE7811A00088901000876
:1001C0002DE9F05F0546002092469B46884606468C
:1001D000814640241BE0284641464746224600F01F
:1001E00041F853465A46C01A914110D31146184659
:1001F000224600F028F82D1A67EB01084F462246E8
:100200000120002100F01FF817EB00094E41201ECD
:10021000A4F10104DFDC484631462A464346BDE8E6
:10022000F09FD2B201E000F8012B491EFBD27047CB
:100230000022F6E710B513460A4604461946FFF7B2
:10024000F0FF204610BD202A04DB203A00FA02F11C
:10025000002070479140C2F1200320FA03F31943B4
:1002600090407047202A04DB203A21FA02F0002156
:10027000704721FA02F3D040C2F1200291400843B6
:1002800019467047064C074D06E0E06840F0010350
:1002900094E8070098471034AC42F6D3FFF778FF94
:1002A000FC1C00081C1D00083EB514460246A0B206
:1002B000CDE90010A02564240123029429460648B4
:1002C00000F0F2FB040002D0284601F0B7FA0A2041
:1002D00000F070F820463EBD400000203EB51446B8
:1002E0000246A0B2CDE90010A025642401230294A7
:1002F0002946054800F0DCFA040002D0284601F047
:100300009DFA20463EBD0000400000202DE9F0414E
:1003100006460F46002016F0070102F00703C1F160
:100320000804C2F3C705984603D0A24216D81A465D
:1003300000E05DB9394633E0082239463046FFF720
:10034000B3FF002831D10836B6B208376D1EEDB2C2
:10035000F2D2B8F1000128D00A46EBE7101BC0F337
:10036000C70500F00708224639463046FFF79CFFD4
:1003700000281AD131198EB23C4409E008222146E6
:100380003046FFF791FF00280FD10836B6B2083487
:100390006D1EEDB2F2D2B8F1000106D00A46214638
:1003A0003046BDE8F041FFF77FBFBDE8F081FEE7D2
:1003B0007047704770B5044600F0B0F90546601C00
:1003C00002D004480078044400F0A8F9401BA04281
:1003D000FAD370BD300000202DE9F04F0022DFF885
:1003E00038B101264FF00F0906FA02F401EA0403BE
:1003F000A3427DD122F003075F44D7F80888950710
:100400004FEA157C09FA0CFA0AEA0805DFF80C81B4
:10041000404502D14FF0000832E0DFF8048140454A
:1004200002D14FF001082BE0DFF8F880404502D1FF
:100430004FF0020824E0DFF8F080404502D14FF091
:1004400003081DE0DFF8E480404502D14FF00408C6
:1004500016E0DFF8DC80404502D14FF005080FE0E0
:10046000DFF8D080404502D14FF0060808E0DFF801
:10047000C880404502D14FF0070801E04FF008085E
:1004800008FA0CF8A84522D12C4DD5F800C02CEA6A
:10049000030CC5F800C005F1040CDCF800509D43C6
:1004A000CCF800500CF10405D5F800C02CEA030C80
:1004B000C5F800C02D1DD5F800C02CEA030CC5F806
:1004C00000C0D7F8085825EA0A05C7F80858056893
:1004D00057000323BB409D430560D50800EB85050D
:1004E000D5F820C057074FEAD76809FA08F700E0A7
:1004F0000CE02CEA070CC5F820C0C5689D43C56018
:100500004568A543456084689C438460521C102A5A
:10051000FFF46AAFBDE8F08F0030014000000240F8
:100520000004024000080240000C0240001002409B
:100530000014024000180240001C0240003C014030
:100540002DE9F84F00224FF0010803254FF00F0E60
:100550000B6808FA02F42340A3426ED14E68012EC4
:1005600005D0022E03D0112E01D0122E12D1866892
:100570004FEA420C05FA0CF7BE43CF6807FA0CF7B6
:10058000374387604668A6430C79C4F3001494404F
:1005900034434460C668570005FA07FC8C6826EAB5
:1005A0000C06BC403443C4604C68022C01D0122CB1
:1005B00013D1D40800EB8404A346D4F82090540748
:1005C0004FEAD46A0EFA0AF629EA06090E6906FA13
:1005D0000AF646EA0906CBF8206006680C7926EA96
:1005E0000C0604F00304BC40344304604C68E4008F
:1005F00065D5364C266846F480462660246822F08D
:10060000030604F480440094314C3444A446D4F8E6
:1006100008489607370F0EFA07F6B4432D4EB0423E
:1006200001D1002624E02C4EB04201D101261FE06A
:100630002A4EB04202D102261AE040E0284EB042D3
:1006400001D1032614E0274EB04201D104260FE069
:10065000254EB04201D105260AE0244EB04201D118
:10066000062605E0224EB04201D1072600E008260A
:10067000BE402643CCF808681E4E34684F689C4341
:10068000FF0300D51C4334601A4C241D26684F68B4
:100690009E43BF0300D51E432660164E08363468BD
:1006A0004F689C43FF0200D51C433460114E0C364A
:1006B00034684F689C43BF0200D51C433460521C11
:1006C000102AFFF445AFBDE8F88F0000443802401F
:1006D00000300140000002400004024000080240D7
:1006E000000C0240001002400014024000180240BA
:1006F000001C0240003C01400069084000D001207D
:100700007047426931EA020200D1090481617047F1
:100710000AB1816170470904FBE700000148806865
:10072000704700003000002070B5040025D094F818
:100730003D00002520B984F83C50204600F062FAC4
:10074000242084F83D002068016821F00101016047
:100750002068016841F4004101602068016821F4CB
:100760000041016000F0AAFB4D4A6168914201D846
:100770004C4900E04C49884201D2012070BD4B49F0
:100780002368B0FBF1F15E6826F03F060E435E6021
:100790006368934206D94FF4967359434FF47A73C2
:1007A000B1FBF3F12368491C1E6A26F03F06314372
:1007B00019626168914210D84900401EB0FBF1F205
:1007C000521CC2F30B02042A01D2042022E0B0FB27
:1007D000F1F0401CC0F30B001CE0A268F2B301EB87
:1007E000C10303EB0116431EB3FBF6F35B1C43F49A
:1007F00080431B0549D092B301EBC10202EB01110A
:10080000401EB0FBF1F0401CC0F30B0040F48040F0
:1008100040F400402168CA694CF6FF739A431043C4
:10082000C861D4E9071001432068026822F0C002C1
:1008300011430160D4E9030101432068826848F252
:10084000FF339A4311438160D4E9050108432168CD
:10085000CA6822F0FF021043C86001E00EE016E013
:100860002068016841F0010101602564202084F8BE
:100870003D00256384F83E50002070BD01EB410629
:10088000431EB3FBF6F35B1CB3E70120C2E701EBA9
:100890004101401EB0FBF1F0401CC0F30B00B7E774
:1008A000A086010080841E0000093D0040420F0028
:1008B0002DE9FF4F83B09A46DDE911979346044630
:1008C000DDF84080FFF72AFF054694F83D00202818
:1008D00070D11923012271492046009500F0D6FEFF
:1008E0000028F5D194F83C00012863D0012084F859
:1008F0003C0020680168C90703D1016841F001018B
:1009000001602068016821F400610160222084F800
:100910003D00402084F83E0000262664C4F8248070
:10092000A4F82A90608D20855D48E062CDE90075CD
:1009300053465A462046049900F0B0FD00287CD169
:10094000208DD0B1012821D00228206824D041690F
:1009500080690090208D032869D801282BD0514947
:1009600002283B464FF00002009559D088462046A9
:1009700000F08CFE002860D13CE02068416981696C
:100980000091016841F40071016077E0206801681E
:1009900021F480610160F0E7016821F48061016069
:1009A0002068016841F40061016020684169806944
:1009B000009063E06FE02A463946204600F0E5FEED
:1009C00098BB20680069616A08704EE02068016881
:1009D00041F40071016020680069616A0870606A12
:1009E000401C6062218D491E2185618D491E6185F3
:1009F000216838E02068016821F480610160206886
:100A00000069616A0870606A401C6062208D401E47
:100A10002085608D401E60853B4600224146009542
:100A2000204600F033FE00B9D0E706E0FFE72A4693
:100A30003946204600F0A9FE18B1012007B0BDE8F4
:100A4000F08F20680069616A0870606A401C60620B
:100A5000218D491E2185618D491E618521684A6964
:100A6000D24352070AD409690170606A401C60626F
:100A7000208D401E2085608D401E6085208D0028C1
:100A80007FF468AF202084F83D0084F83E6084F84D
:100A90003C600020D2E70220D0E7000002001000F6
:100AA0000000FFFF040001002DE9FF4F83B09A46CC
:100AB000DDE9119793460446DDF84080FFF72EFEEE
:100AC000054694F83D0020287FD119230122404992
:100AD0002046009500F0DAFD002876D194F83C001D
:100AE000012872D0012084F83C0020680168C90701
:100AF00003D1016841F0010101602068016821F41F
:100B000000610160212084F83D00402084F83E000F
:100B100000262664C4F82480A4F82A90608D2085DD
:100B20002C48E062CDE9007553465A4620460499A8
:100B300000F032FD70B930E02A463946204600F018
:100B400057FE58B1206C042804D12068016841F494
:100B500000710160012007B0BDE8F08F606A216874
:100B600000780861606A401C6062218D491E89B26C
:100B70002185628D521E628522685369DB435B07C3
:100B80000BD469B100781061606A401C6062208DEE
:100B9000401E2085608D401E6085208D0028CBD1B1
:100BA0002A463946204600F04BFD0028CAD154F8A9
:100BB0003D0B016841F400710160202004F81E091A
:100BC000E67766770020C6E7FFE70220C3E700006C
:100BD000020010000000FFFF00680749884209D1A9
:100BE0000648016821F4001101604FF44071044887
:100BF000FFF7F2BB7047000000540040403802404D
:100C00000004024010B586B0044614216846FFF780
:100C10000FFB14492068884221D11348016841F034
:100C2000020101600068694600F0020005904FF47F
:100C30004070009012200190012002900320039048
:100C4000042004900948FFF77BFC07481030016836
:100C500041F400110160006800F40010059006B036
:100C600010BD000000540040303802400004024033
:100C7000024881680278114481607047300000208A
:100C80000B4810B5016841F400710160016841F43E
:100C900080610160016841F480710160032000F00F
:100CA00061F8002000F006F800F024F8002010BDE4
:100CB000003C024070B50D4D04464FF47A7128781F
:100CC000B1FBF0F00A490968B1FBF0F000F0F4FA6A
:100CD00048B9102C07D200222146501E00F022F8FD
:100CE00000206C6070BD012070BD0000300000204D
:100CF0003C0000200A4808B5016841F480410160C9
:100D0000006800F4804000900548001F016841F031
:100D100080510160006800F08050009008BD000024
:100D200044380240F0B40E4B1B680C46C3F3022358
:100D3000C3F10705042D00D90425191D072901D287
:100D4000002300E0DB1E012606FA05F1491E2140C2
:100D500099409E40761E16403143F0BC00F065BFBE
:100D60000CED00E0064900F0070208684FF6FF03AB
:100D7000184040EA0220034A104308607047000010
:100D80000CED00E00000FA052DE9F0470E460500E5
:100D900065D0DFF81481D8F80000F7B200F00F003A
:100DA000B04207D288F80070D8F8000000F00F00B9
:100DB000B04254D128683D4C810712D5400703D575
:100DC000206840F4E05020602878000703D52068B0
:100DD00040F4604020602068A96820F0F0000843DB
:100DE00020602878C0072DD030496868083901286C
:100DF00012D0022813D0032811D0096889070029CE
:100E00002DDA216821F0030101432160FFF786FC00
:100E1000814641F2883A0EE009688903EFE70968E4
:100E20008901ECE7FFF77AFCA0EB0901514502D9F3
:100E30000320BDE8F0872068696800F00C00B0EB83
:100E4000810FEFD1D8F80010404601F00F01B142F8
:100E500007D90770006800F00F00B04201D00120F0
:100E6000E7E72878400705D52068E96820F4E050D6
:100E7000084320602878000706D52068296920F4F7
:100E8000604040EAC100206000F038F82168084A5C
:100E9000C1F30311515CC840064908600648006868
:100EA000FFF708FF0020C4E7003C0240083802407A
:100EB000E41C00083C0000203400002004480549E0
:100EC00000680968044AC1F38221515CC840704738
:100ED0003C00002008380240F41C00080448054982
:100EE00000680968044AC1F34231515CC840704748
:100EF0003C00002008380240F41C0008154810B5DA
:100F0000006810F00C02144813D04110042A0FD0CE
:100F1000082A0ED10F4C241F2268236802F03F02DA
:100F20005B0207D52068C0F38810A0FB010106E032
:100F3000084610BD2168C1F38811A1FB0001002300
:100F4000FFF73EF92168C1F30141491C4900B0FB9C
:100F5000F1F010BD083802400024F4002DE9F84FEC
:100F6000040076D02078DFF838A3CE4DC00749D0F2
:100F7000DAF800105046C1F38101012908D0006859
:100F8000C0F3810002280AD1281D0068400206D55E
:100F90002868800336D560680028E2D032E06068B7
:100FA000B0F5803F10D0B0F5A02F286810D020F405
:100FB00080302860286820F4802028606068A0B114
:100FC000FFF7ACFB06460CE0286840F48030F4E7FD
:100FD00040F480202860F7E7FFF7A0FB801B64281F
:100FE00073D828688003F7D50CE0FFF797FB064617
:100FF00005E000BFFFF792FB801B6428F0D828684B
:101000008003F7D42078DFF8A08280074FF0000932
:101010003ED5DAF80010504611F00C0F09D00068E8
:10102000C0F3810002280BD19D48001F00684002D8
:1010300006D42868800715D5E068012809D111E099
:10104000E068B8B10120C8F80000FFF767FB06466A
:1010500005E020E1FFF762FB801B0228C0D828686A
:101060008007F7D52868216920F0F80040EAC10020
:1010700028600DE0C8F80090FFF750FB064604E03A
:10108000FFF74CFB801B02281FD828688007F7D485
:101090002078000722D5824E844861696C3671B190
:1010A00001210160FFF73AFB074604E0FFF736FB3A
:1010B000C01B022809D830688007F7D50EE0C0F8B9
:1010C0000090FFF72BFB074605E082E0FFF726FBC9
:1010D000C01B02287DD830688007F7D420784007ED
:1010E00068D5DFF8BCB100270BF1380BDBF8000046
:1010F000C0000BD4DBF8001041F08051CBF8001099
:10110000DBF80000012700F080500090684E306846
:10111000C00510D4306840F480703060FFF7FEFAEC
:10112000009005E0FFF7FAFA0099401A022850D81B
:101130003068C005F6D55A4EA068683601280FD031
:101140000528306810D020F001003060306820F0B1
:1011500004003060A068B8B1FFF7E0FA00900FE03B
:10116000306840F00100F4E740F004003060F7E739
:10117000FFF7D4FA0099411A41F28830814266D8CB
:1011800030688007F4D50EE0FFF7C8FA009007E05A
:10119000FFF7C4FA0099411A41F28830814256D8CB
:1011A00030688007F4D42FB1DBF8001021F08051B3
:1011B000CBF80010A069D0B3DAF800205146C2F392
:1011C0008102022A4AD00228484607D0C8F86000A7
:1011D00000E03CE0FFF7A2FA04463BE04746C8F8CF
:1011E0006000FFF79BFA064605E000BFFFF796FA9E
:1011F000801B02282BD828688001F7D4D4E9070186
:101200000843A16A2B4A490802EB0141626A41EA9C
:101210008211084394F82C1040EA01612048001F15
:10122000016001203866FFF779FA044605E034E0F2
:10123000FFF774FA001B022809D828688001F7D547
:101240002BE000BFFFF76AFA001B022802D9032037
:10125000BDE8F88F28688001F4D41EE00128F7D09B
:101260000868E26900F48001914214D1226A00F01A
:101270003F0191420FD147F6C071626A014091422D
:1012800009D1A26A00F44031914204D1E16A00F030
:101290007060884201D00120DAE70020D8E7000022
:1012A000083802400038024000004742800E4742A2
:1012B000007000400000FFFF10B5401EB0F1807FBD
:1012C00001D3012010BD4FF0E02460610F216017B1
:1012D00000F0ABFC0020A06107202061002010BDC1
:1012E00070B5040004D094F83900002510B106E070
:1012F000012070BD84F83850204600F023F82420E7
:1013000084F839002068C16821F40051C16020468A
:1013100000F0C4FB2068016921F49041016120685C
:10132000416921F02A0141612068C16841F40051FE
:10133000C160E563202084F8390084F83A00002079
:1013400070BD000010B586B0044614216846FEF753
:101350006FFF14492068884221D11348016841F089
:1013600010010160006800F0100005900E4814386C
:10137000016841F0010101600068694600F0010068
:1013800005904FF4C060009002200190012002906F
:1013900003200390072004900448FFF7D1F806B01B
:1013A00010BD00000010014044380240000002401F
:1013B0002DE9F843044690F839001F4616460D46BD
:1013C000202850D1B5B1AEB194F8380001284AD0E8
:1013D000012084F838004FF00008C4F83C80212038
:1013E00084F83900FFF79AF9A6848146E68484F8E8
:1013F000388026E00120BDE8F883E08C401EE084C0
:10140000A0684B46B0F5805F4FF000024FF08001BE
:101410002046009703D000F0D5FBE8B90DE000F0BE
:10142000D1FBC8B928882168C0F30800486020694A
:1014300008B16D1C05E0AD1C03E0216815F8010B37
:101440004860E08C0028D8D14B460022402120463D
:10145000009700F0B7FB08B10320CCE7202084F808
:1014600039000020C7E70220C5E7FEE701684A69A6
:10147000D24352050FD46FF480624A61002140F8D4
:10148000301F202242738173026942F0040202611C
:101490000173012070470020704700002DE9F84FCC
:1014A0000446006889460B9D01689846174641F43A
:1014B000806101602068016841F4807101600095DD
:1014C0004FF0011B0022594620460A9B00F0DEF82F
:1014D0004FF4007A40B120680068C00501D5C4F817
:1014E00040A00320BDE8F88F216809F0FE000861E4
:1014F0002B46284920460A9A00F0FCF8F0BB2068E9
:101500004169806900902A4620460A9900F070F9E6
:1015100040B1206C04283AD12068016841F4007180
:10152000016034E0FEB2B8F1010F09D02168380A39
:1015300008612A4620460A9900F05AF90028E8D1A5
:10154000206806612A4620460A9900F051F90028D1
:10155000DFD12068016841F48071016000950022AC
:10156000594620460A9B00F091F80028B3D1216823
:1015700009F0FF0040F00100086100E007E02B46A1
:10158000044920460A9A00F0B5F80028AAD00120A4
:10159000A8E70000020001002DE9F84304460068B6
:1015A0000D46DDE9089701689846164641F48071BA
:1015B00001604B4600224FF001112046009700F0D9
:1015C00065F848B120680068C00502D54FF4007086
:1015D00020640320BDE8F883216805F0FE0008615F
:1015E0003B464A461549204600F084F888B92068F1
:1015F0004169806900903A464946204600F0F8F873
:1016000048B1206C042804D12068016841F40071BD
:1016100001600120DEE7F5B2B8F1010F09D02168C1
:10162000300A08613A464946204600F0E1F80028B1
:10163000E7D1206805610020CCE70000020001002E
:1016400070B516460D4604460DE02046FFF70EFF26
:1016500008B1012070BD681C05D0FFF75FF8801B42
:10166000A84207D835B120684069C0434007ECD490
:10167000002070BD002044F8300F20216173A0735A
:10168000216941F0200121612073E2E72DE9F04753
:101690001E4690460D460446C1F30747DDF82090EC
:1016A00008E0701C06D0FFF739F8A0EB0900B04243
:1016B0000FD876B12068012F18D0806925EA000084
:1016C0000004000C14D000214145EAD00020BDE800
:1016D000F087002044F8300F20216173A073216946
:1016E00041F02001216120730120F0E74069E5E726
:1016F0000121E9E72DE9F0479A4691460E46044656
:1017000000254FF02008C1F3074725E02068406915
:10171000C043400514D42068016841F400710160A1
:1017200021686FF480604861256384F83D8084F807
:101730003E50206C40F00400206484F83C501FE0D0
:10174000B9F1FF3F08D0FEF7E9FFA0EB0A014945D8
:101750000CD8B9F1000F09D02068012F13D080698F
:1017600026EA00000004000C0BD0CFE744F8305FFD
:1017700084F80D80A573206940F020002061257356
:101780000120BDE8F0874069EAE72DE9F041002536
:1017900090460E460446202717E04069C043C00625
:1017A0000CD454F8301B6FF01000486144F8105905
:1017B0006777A577206A2062257717E0FEF7AEFFEE
:1017C000A0EB0800B04208D83EB120684169C94387
:1017D0004906E2D40020BDE8F08144F8305F677329
:1017E000A573206940F02000206125730120F2E7F5
:1017F00070B516460D4604460DE02046FFF736FE4E
:1018000008B1012070BD681C05D0FEF787FF801B62
:10181000A84207D835B120684069C0430006ECD41F
:10182000002070BD002044F8300F20216173A073A8
:10183000216941F0200121612073E2E710B50348DE
:10184000FFF7CAF9BDE8104000F096B8400000204C
:1018500070B51B4C1B4D012608B1267001E02078A5
:1018600048B110212846FEF747FF58B10821284605
:10187000FEF742FF30B110212846FEF73DFF012858
:1018800014D01AE00A20FEF795FD002020701021E8
:101890002846FEF731FF28B108212846FEF72CFF25
:1018A00010B10AE0012070BD022070BD0821284659
:1018B000FEF722FF012800D12670002070BD000035
:1018C0000000002000100240F0B587B014216846E7
:1018D000FEF7AEFC25480024016841F010010160CC
:1018E000016801F010010591016841F004010160F7
:1018F000016801F004010591016841F020010160D7
:10190000016801F020010591016841F0800101604A
:10191000016801F080010591016841F00101016059
:10192000016801F001010591016841F002010160C7
:1019300000680F4F00F002004FF40076059000227F
:1019400031463846FEF7E4FE182001258DE83100C7
:1019500069460848FEF7F4FD0096CDE90154694652
:1019600038460394FEF7ECFD07B0F0BD3038024076
:1019700000140240001002400D4810B50B490160F0
:101980000C49416000214FF480428160C0E903129C
:1019900041618161C1610162FEF7C6FE002803D08A
:1019A000BDE81040FEF705BD10BD0000005400402A
:1019B00040000020A08601000C4810B50A490160D3
:1019C0004FF4E1314160002181600C22C160C0E927
:1019D00004128161C161FFF783FC002803D0BDE8D8
:1019E0001040FEF7E6BC10BD00100140940000203E
:1019F000FEE7704770477047FFF73AB930B593B0CC
:101A000030216846FEF714FC14210CA8FEF710FCE8
:101A100019480025016841F080510160006800F01C
:101A2000805011901548016841F4804101600068C0
:101A3000022400F4804011900120009000040190E5
:101A40008001CDE9064008AA0420A82182E81300FD
:101A50000B906846FFF782FA0CA90F2081E831004D
:101A60004FF4A0500F90E002109005210CA8FFF752
:101A70008BF913B030BD00004038024000700040C8
:101A80000548016841F47001016003494FF00060AE
:101A9000803908607047000088ED00E02DE9F041D2
:101AA000044600680169E26821F440511143016174
:101AB0002169A068E269084361691143084321680C
:101AC000CA6849F20C639A430243CA6020684169BC
:101AD000A26921F4407111434161E069192764252D
:101AE0003226B0F5004F354A354920684FF00008DE
:101AF00006D0884201D0904236D1FFF7EFF935E0A9
:101B0000884201D0904202D1FFF7E8F901E0FFF7E7
:101B1000D5F961684A18A0FB070148EB0803FEF7F6
:101B20004FFB0146B0FBF5F00201B1FBF5F06FF0A1
:101B30001803584301EB800006EBC000B0FBF5F042
:101B400000F0F80002EB4002B1FBF5F0584301EB66
:101B5000800006EBC000B0FBF5F000F00700216844
:101B600010448860BDE8F081FFF7A8F961688B0F29
:101B70008A00A0FB0701FEF723FB0146B0FBF5F04E
:101B80006FF01802504301EB800006EB0010B0FB31
:101B9000F5F000F0F002B1FBF5F002EB0012B1FB42
:101BA000F5F06FF01803584301EB800006EB0010CE
:101BB000B0FBF5F000F00F00D1E700000014014089
:101BC000001001402DE9F041984617460E460446A4
:101BD000069D1DE0681C1BD02DB1FEF79FFDA0EBFC
:101BE0000800A84214D92068C16821F4D071C160EE
:101BF0002068416921F001014161202084F8390009
:101C000084F83A00002084F838000320BDE8F08111
:101C10002068006836EA000004D00020B842D9D01D
:101C20000020F3E70120F9E7FEE70907090E002885
:101C300004DB00F1E02080F80014704700F00F0092
:101C400000F1E02080F8141D704702E008C8121F60
:101C500008C1002AFAD170477047002001E001C195
:101C6000121F002AFBD170478CB00024FFF708F840
:101C7000FFF7C4FEFFF728FEFFF77EFEFFF79CFE8E
:101C8000154F4FF6FF754FF400760020FFF7E0FD8B
:101C9000022802D0012806D010E02D220F49002092
:101CA000FEF734FB0AE02D2269460020FEF716FB02
:101CB0002B462D2269460A48FFF77AFB641CA4B222
:101CC0000A20FEF777FB142CDFD131463846FEF7A9
:101CD00018FD0024D9E70000001402400100002094
:101CE0009400002000000000000000000102030436
:101CF0000607080900000000010203041C1D00087B
:101D000000000020400000004A1C00085C1D000884
:101D100040000020980400005A1C00080154686923
:101D20007320697320612053544D33324634303769
:101D30005A47543620494943207465737420666FAE
:101D40007220415432344330320000000100000060
:0C1D500010000000000000000024F4005F
:040000050800018965
:00000001FF
